{
  "address": "0x22A9640a746f79888008d19A9d8Aca9206cc61b4",
  "abi": [
    {
      "inputs": [
        {
          "internalType": "uint256",
          "name": "campaignGoal",
          "type": "uint256"
        },
        {
          "internalType": "uint256",
          "name": "minContribution",
          "type": "uint256"
        }
      ],
      "stateMutability": "nonpayable",
      "type": "constructor"
    },
    {
      "inputs": [],
      "name": "Campaign__ContributionTransactionFailed",
      "type": "error"
    },
    {
      "inputs": [],
      "name": "Campaign__NoEnoughAmount",
      "type": "error"
    },
    {
      "inputs": [],
      "name": "Campaign__NotEnoughToWithdraw",
      "type": "error"
    },
    {
      "inputs": [],
      "name": "Campaign__NotOwner",
      "type": "error"
    },
    {
      "inputs": [],
      "name": "Campaign__RequestIsUnderProcess",
      "type": "error"
    },
    {
      "inputs": [],
      "name": "Campaign__RequestRejected",
      "type": "error"
    },
    {
      "inputs": [],
      "name": "Campaign__SendMinFund",
      "type": "error"
    },
    {
      "inputs": [],
      "name": "Campaign__WithdrawTransactionFailed",
      "type": "error"
    },
    {
      "inputs": [],
      "name": "Stake__ContributerAlreadyVoted",
      "type": "error"
    },
    {
      "inputs": [],
      "name": "Stake__DeadLineReached",
      "type": "error"
    },
    {
      "inputs": [],
      "name": "Stake__DeadlineNotReached",
      "type": "error"
    },
    {
      "anonymous": false,
      "inputs": [
        {
          "indexed": false,
          "internalType": "address",
          "name": "from",
          "type": "address"
        },
        {
          "indexed": false,
          "internalType": "uint256",
          "name": "fundedAmount",
          "type": "uint256"
        }
      ],
      "name": "FundTransfered",
      "type": "event"
    },
    {
      "anonymous": false,
      "inputs": [
        {
          "indexed": false,
          "internalType": "uint256",
          "name": "amountWithdrawed",
          "type": "uint256"
        }
      ],
      "name": "FundWithdrawed",
      "type": "event"
    },
    {
      "anonymous": false,
      "inputs": [
        {
          "indexed": false,
          "internalType": "address",
          "name": "from",
          "type": "address"
        },
        {
          "indexed": false,
          "internalType": "address",
          "name": "to",
          "type": "address"
        }
      ],
      "name": "OwnershipTransfered",
      "type": "event"
    },
    {
      "anonymous": false,
      "inputs": [
        {
          "indexed": false,
          "internalType": "uint256",
          "name": "requestIndex",
          "type": "uint256"
        }
      ],
      "name": "RequestApplied",
      "type": "event"
    },
    {
      "anonymous": false,
      "inputs": [
        {
          "indexed": false,
          "internalType": "uint256",
          "name": "requestIndex",
          "type": "uint256"
        },
        {
          "indexed": false,
          "internalType": "bool",
          "name": "approved",
          "type": "bool"
        }
      ],
      "name": "RequestResult",
      "type": "event"
    },
    {
      "inputs": [],
      "name": "contribute",
      "outputs": [],
      "stateMutability": "payable",
      "type": "function"
    },
    {
      "inputs": [
        {
          "internalType": "uint256",
          "name": "requestIndex",
          "type": "uint256"
        }
      ],
      "name": "executeResult",
      "outputs": [],
      "stateMutability": "nonpayable",
      "type": "function"
    },
    {
      "inputs": [],
      "name": "getCampaignGoal",
      "outputs": [
        {
          "internalType": "uint256",
          "name": "",
          "type": "uint256"
        }
      ],
      "stateMutability": "view",
      "type": "function"
    },
    {
      "inputs": [],
      "name": "getContributors",
      "outputs": [
        {
          "internalType": "address[]",
          "name": "",
          "type": "address[]"
        }
      ],
      "stateMutability": "view",
      "type": "function"
    },
    {
      "inputs": [
        {
          "internalType": "address",
          "name": "contributerAddress",
          "type": "address"
        }
      ],
      "name": "getContributorsFundAmount",
      "outputs": [
        {
          "internalType": "uint256",
          "name": "",
          "type": "uint256"
        }
      ],
      "stateMutability": "view",
      "type": "function"
    },
    {
      "inputs": [],
      "name": "getCurrentFundInContract",
      "outputs": [
        {
          "internalType": "uint256",
          "name": "",
          "type": "uint256"
        }
      ],
      "stateMutability": "view",
      "type": "function"
    },
    {
      "inputs": [
        {
          "internalType": "address",
          "name": "contributer",
          "type": "address"
        }
      ],
      "name": "getFundByAddress",
      "outputs": [
        {
          "internalType": "uint256",
          "name": "",
          "type": "uint256"
        }
      ],
      "stateMutability": "view",
      "type": "function"
    },
    {
      "inputs": [],
      "name": "getOwnerAddress",
      "outputs": [
        {
          "internalType": "address",
          "name": "",
          "type": "address"
        }
      ],
      "stateMutability": "view",
      "type": "function"
    },
    {
      "inputs": [],
      "name": "getTotalContributers",
      "outputs": [
        {
          "internalType": "uint256",
          "name": "",
          "type": "uint256"
        }
      ],
      "stateMutability": "view",
      "type": "function"
    },
    {
      "inputs": [],
      "name": "getTotalFund",
      "outputs": [
        {
          "internalType": "uint256",
          "name": "",
          "type": "uint256"
        }
      ],
      "stateMutability": "view",
      "type": "function"
    },
    {
      "inputs": [
        {
          "internalType": "uint256",
          "name": "_durationOfRequest",
          "type": "uint256"
        },
        {
          "internalType": "uint256",
          "name": "_withdrawAmount",
          "type": "uint256"
        }
      ],
      "name": "makeRequest",
      "outputs": [],
      "stateMutability": "nonpayable",
      "type": "function"
    },
    {
      "inputs": [
        {
          "internalType": "address",
          "name": "",
          "type": "address"
        }
      ],
      "name": "s_contributerFund",
      "outputs": [
        {
          "internalType": "uint256",
          "name": "",
          "type": "uint256"
        }
      ],
      "stateMutability": "view",
      "type": "function"
    },
    {
      "inputs": [
        {
          "internalType": "uint256",
          "name": "requestId",
          "type": "uint256"
        },
        {
          "internalType": "enum CampaignLib.vote",
          "name": "myVote",
          "type": "uint8"
        }
      ],
      "name": "stakeInRequest",
      "outputs": [],
      "stateMutability": "nonpayable",
      "type": "function"
    },
    {
      "inputs": [
        {
          "internalType": "address",
          "name": "to",
          "type": "address"
        }
      ],
      "name": "transferOwnerShip",
      "outputs": [],
      "stateMutability": "nonpayable",
      "type": "function"
    },
    {
      "inputs": [
        {
          "internalType": "uint256",
          "name": "requestIndex",
          "type": "uint256"
        }
      ],
      "name": "withdraw",
      "outputs": [],
      "stateMutability": "payable",
      "type": "function"
    }
  ],
  "transactionHash": "0x92b01ed0420002f2461aa9c023079b834f9448adbadd4902be9b9073966d06ed",
  "args": [
    "1000000000000000000000",
    "10000000000000000"
  ],
  "numDeployments": 2,
  "solcInputHash": "9bb0ab837c83de627c49d41a175481d4",
  "bytecode": "0x60c06040523480156200001157600080fd5b50604051620018cd380380620018cd8339818101604052810190620000379190620000d0565b81608081815250508060a0818152505033600260006101000a81548173ffffffffffffffffffffffffffffffffffffffff021916908373ffffffffffffffffffffffffffffffffffffffff160217905550505062000117565b600080fd5b6000819050919050565b620000aa8162000095565b8114620000b657600080fd5b50565b600081519050620000ca816200009f565b92915050565b60008060408385031215620000ea57620000e962000090565b5b6000620000fa85828601620000b9565b92505060206200010d85828601620000b9565b9150509250929050565b60805160a0516117906200013d6000396000610be7015260006107d601526117906000f3fe6080604052600436106100e85760003560e01c80639fd813e31161008a578063c7abca4711610059578063c7abca47146102c1578063d7bb99ba146102fe578063e4d89cf614610308578063fd6bc8b814610345576100e8565b80639fd813e314610219578063af157c1914610244578063b93863df1461026f578063ba56585914610298576100e8565b80634b73212b116100c65780634b73212b1461015f5780637018a7af1461019c57806372b47b84146101c55780638863dd1a146101f0576100e8565b806309d387da146100ed5780630c4f65bd146101185780632e1a7d4d14610143575b600080fd5b3480156100f957600080fd5b50610102610370565b60405161010f9190611234565b60405180910390f35b34801561012457600080fd5b5061012d610378565b60405161013a9190611290565b60405180910390f35b61015d600480360381019061015891906112dc565b6103a2565b005b34801561016b57600080fd5b5061018660048036038101906101819190611335565b6106d4565b6040516101939190611234565b60405180910390f35b3480156101a857600080fd5b506101c360048036038101906101be91906112dc565b61071c565b005b3480156101d157600080fd5b506101da6107d2565b6040516101e79190611234565b60405180910390f35b3480156101fc57600080fd5b5061021760048036038101906102129190611335565b6107fa565b005b34801561022557600080fd5b5061022e6108fe565b60405161023b9190611234565b60405180910390f35b34801561025057600080fd5b50610259610908565b6040516102669190611420565b60405180910390f35b34801561027b57600080fd5b5061029660048036038101906102919190611442565b610996565b005b3480156102a457600080fd5b506102bf60048036038101906102ba91906114a7565b610b4a565b005b3480156102cd57600080fd5b506102e860048036038101906102e39190611335565b610bcd565b6040516102f59190611234565b60405180910390f35b610306610be5565b005b34801561031457600080fd5b5061032f600480360381019061032a9190611335565b610def565b60405161033c9190611234565b60405180910390f35b34801561035157600080fd5b5061035a610e37565b6040516103679190611234565b60405180910390f35b600047905090565b6000600260009054906101000a900473ffffffffffffffffffffffffffffffffffffffff16905090565b600260009054906101000a900473ffffffffffffffffffffffffffffffffffffffff1673ffffffffffffffffffffffffffffffffffffffff163373ffffffffffffffffffffffffffffffffffffffff1614610429576040517fb75c8fb100000000000000000000000000000000000000000000000000000000815260040160405180910390fd5b806104338161071c565b60006002811115610447576104466114e7565b5b6104716003838154811061045e5761045d611516565b5b9060005260206000209060080201610e44565b6002811115610483576104826114e7565b5b036104ba576040517fbae63cc200000000000000000000000000000000000000000000000000000000815260040160405180910390fd5b6002808111156104cd576104cc6114e7565b5b6104f7600383815481106104e4576104e3611516565b5b9060005260206000209060080201610e44565b6002811115610509576105086114e7565b5b03610540576040517f3db289e300000000000000000000000000000000000000000000000000000000815260040160405180910390fd5b600061056c6003848154811061055957610558611516565b5b9060005260206000209060080201610e5f565b9050804710156105a8576040517f57d5fa0800000000000000000000000000000000000000000000000000000000815260040160405180910390fd5b6000600260009054906101000a900473ffffffffffffffffffffffffffffffffffffffff1673ffffffffffffffffffffffffffffffffffffffff16826040516105f090611576565b60006040518083038185875af1925050503d806000811461062d576040519150601f19603f3d011682016040523d82523d6000602084013e610632565b606091505b505090508061066d576040517f4c3ac88a00000000000000000000000000000000000000000000000000000000815260040160405180910390fd5b6106976003858154811061068457610683611516565b5b9060005260206000209060080201610e6d565b7f78607c3338a50a97f0960b9ebb80a74d63115b7f462a4ea45c55abb0e5a36563826040516106c69190611234565b60405180910390a150505050565b60008060008373ffffffffffffffffffffffffffffffffffffffff1673ffffffffffffffffffffffffffffffffffffffff168152602001908152602001600020549050919050565b6107466003828154811061073357610732611516565b5b9060005260206000209060080201610e8d565b7f53d354f890b3877b85a588db153bbbce1a4b7c3fd4008a48294f78f13a13524a816001600281111561077c5761077b6114e7565b5b6107a66003858154811061079357610792611516565b5b9060005260206000209060080201610e44565b60028111156107b8576107b76114e7565b5b146040516107c79291906115a6565b60405180910390a150565b60007f0000000000000000000000000000000000000000000000000000000000000000905090565b600260009054906101000a900473ffffffffffffffffffffffffffffffffffffffff1673ffffffffffffffffffffffffffffffffffffffff163373ffffffffffffffffffffffffffffffffffffffff1614610881576040517fb75c8fb100000000000000000000000000000000000000000000000000000000815260040160405180910390fd5b80600260006101000a81548173ffffffffffffffffffffffffffffffffffffffff021916908373ffffffffffffffffffffffffffffffffffffffff1602179055507f0d18b5fd22306e373229b9439188228edca81207d1667f604daf6cef8aa3ee6733826040516108f39291906115cf565b60405180910390a150565b6000600154905090565b6060600480548060200260200160405190810160405280929190818152602001828054801561098c57602002820191906000526020600020905b8160009054906101000a900473ffffffffffffffffffffffffffffffffffffffff1673ffffffffffffffffffffffffffffffffffffffff1681526020019060010190808311610942575b5050505050905090565b600260009054906101000a900473ffffffffffffffffffffffffffffffffffffffff1673ffffffffffffffffffffffffffffffffffffffff163373ffffffffffffffffffffffffffffffffffffffff1614610a1d576040517fb75c8fb100000000000000000000000000000000000000000000000000000000815260040160405180910390fd5b600060036001816001815401808255809150500390600052602060002090600802019050828160010181905550818160020181905550428160030181905550600081600501819055506000816006018190555060008160070160016101000a81548160ff021916908315150217905550308160040160006101000a81548173ffffffffffffffffffffffffffffffffffffffff021916908373ffffffffffffffffffffffffffffffffffffffff16021790555060008160070160006101000a81548160ff02191690836002811115610af857610af76114e7565b5b02179055507fa5f7f4c8f7ba98ee825a5d8b155830a9dd4e7d29fcc431c6c3bcce27776c27846001600380549050610b309190611627565b604051610b3d9190611234565b60405180910390a1505050565b6000610b996000803373ffffffffffffffffffffffffffffffffffffffff1673ffffffffffffffffffffffffffffffffffffffff16815260200190815260200160002054612710600154610f94565b9050610bc860038481548110610bb257610bb1611516565b5b9060005260206000209060080201833384610ffb565b505050565b60006020528060005260406000206000915090505481565b7f0000000000000000000000000000000000000000000000000000000000000000341015610c3f576040517f0cb8feec00000000000000000000000000000000000000000000000000000000815260040160405180910390fd5b60003073ffffffffffffffffffffffffffffffffffffffff1634604051610c6590611576565b60006040518083038185875af1925050503d8060008114610ca2576040519150601f19603f3d011682016040523d82523d6000602084013e610ca7565b606091505b5050905080610ce2576040517f27b8c0b700000000000000000000000000000000000000000000000000000000815260040160405180910390fd5b7f4a0f31347e3bcd7ca4807151e54057b91971fdf592fcd3056a22fa1236dea3a23334604051610d1392919061165b565b60405180910390a1346000803373ffffffffffffffffffffffffffffffffffffffff1673ffffffffffffffffffffffffffffffffffffffff1681526020019081526020016000206000828254610d699190611684565b925050819055503460016000828254610d829190611684565b925050819055506004339080600181540180825580915050600190039060005260206000200160009091909190916101000a81548173ffffffffffffffffffffffffffffffffffffffff021916908373ffffffffffffffffffffffffffffffffffffffff16021790555050565b60008060008373ffffffffffffffffffffffffffffffffffffffff1673ffffffffffffffffffffffffffffffffffffffff168152602001908152602001600020549050919050565b6000600480549050905090565b60008160070160009054906101000a900460ff169050919050565b600081600201549050919050565b60018160070160016101000a81548160ff02191690831515021790555050565b8060016000610e9b836111dc565b90508115610ee3576000811115610ede576040517f1638298000000000000000000000000000000000000000000000000000000000815260040160405180910390fd5b610f1e565b60008103610f1d576040517fc1ae823a00000000000000000000000000000000000000000000000000000000815260040160405180910390fd5b5b836006015484600501541115610f605760018460070160006101000a81548160ff02191690836002811115610f5657610f556114e7565b5b0217905550610f8e565b60028460070160006101000a81548160ff02191690836002811115610f8857610f876114e7565b5b02179055505b50505050565b6000818385610fa391906116b8565b1015610fdb576040517f31869caf00000000000000000000000000000000000000000000000000000000815260040160405180910390fd5b818385610fe891906116b8565b610ff29190611729565b90509392505050565b83600080611008836111dc565b9050811561105057600081111561104b576040517f1638298000000000000000000000000000000000000000000000000000000000815260040160405180910390fd5b61108b565b6000810361108a576040517fc1ae823a00000000000000000000000000000000000000000000000000000000815260040160405180910390fd5b5b8660000160008673ffffffffffffffffffffffffffffffffffffffff1673ffffffffffffffffffffffffffffffffffffffff16815260200190815260200160002060009054906101000a900460ff1615611111576040517fd2383bdc00000000000000000000000000000000000000000000000000000000815260040160405180910390fd5b60018760000160008773ffffffffffffffffffffffffffffffffffffffff1673ffffffffffffffffffffffffffffffffffffffff16815260200190815260200160002060006101000a81548160ff0219169083151502179055506000600181111561117f5761117e6114e7565b5b866001811115611192576111916114e7565b5b036111b757838760050160008282546111ab9190611684565b925050819055506111d3565b838760060160008282546111cb9190611684565b925050819055505b50505050505050565b600080826001015483600301546111f39190611684565b9050804210611206576000915050611216565b42816112129190611627565b9150505b919050565b6000819050919050565b61122e8161121b565b82525050565b60006020820190506112496000830184611225565b92915050565b600073ffffffffffffffffffffffffffffffffffffffff82169050919050565b600061127a8261124f565b9050919050565b61128a8161126f565b82525050565b60006020820190506112a56000830184611281565b92915050565b600080fd5b6112b98161121b565b81146112c457600080fd5b50565b6000813590506112d6816112b0565b92915050565b6000602082840312156112f2576112f16112ab565b5b6000611300848285016112c7565b91505092915050565b6113128161126f565b811461131d57600080fd5b50565b60008135905061132f81611309565b92915050565b60006020828403121561134b5761134a6112ab565b5b600061135984828501611320565b91505092915050565b600081519050919050565b600082825260208201905092915050565b6000819050602082019050919050565b6113978161126f565b82525050565b60006113a9838361138e565b60208301905092915050565b6000602082019050919050565b60006113cd82611362565b6113d7818561136d565b93506113e28361137e565b8060005b838110156114135781516113fa888261139d565b9750611405836113b5565b9250506001810190506113e6565b5085935050505092915050565b6000602082019050818103600083015261143a81846113c2565b905092915050565b60008060408385031215611459576114586112ab565b5b6000611467858286016112c7565b9250506020611478858286016112c7565b9150509250929050565b6002811061148f57600080fd5b50565b6000813590506114a181611482565b92915050565b600080604083850312156114be576114bd6112ab565b5b60006114cc858286016112c7565b92505060206114dd85828601611492565b9150509250929050565b7f4e487b7100000000000000000000000000000000000000000000000000000000600052602160045260246000fd5b7f4e487b7100000000000000000000000000000000000000000000000000000000600052603260045260246000fd5b600081905092915050565b50565b6000611560600083611545565b915061156b82611550565b600082019050919050565b600061158182611553565b9150819050919050565b60008115159050919050565b6115a08161158b565b82525050565b60006040820190506115bb6000830185611225565b6115c86020830184611597565b9392505050565b60006040820190506115e46000830185611281565b6115f16020830184611281565b9392505050565b7f4e487b7100000000000000000000000000000000000000000000000000000000600052601160045260246000fd5b60006116328261121b565b915061163d8361121b565b9250828203905081811115611655576116546115f8565b5b92915050565b60006040820190506116706000830185611281565b61167d6020830184611225565b9392505050565b600061168f8261121b565b915061169a8361121b565b92508282019050808211156116b2576116b16115f8565b5b92915050565b60006116c38261121b565b91506116ce8361121b565b92508282026116dc8161121b565b915082820484148315176116f3576116f26115f8565b5b5092915050565b7f4e487b7100000000000000000000000000000000000000000000000000000000600052601260045260246000fd5b60006117348261121b565b915061173f8361121b565b92508261174f5761174e6116fa565b5b82820490509291505056fea26469706673582212200ea82383f6188ab747c9657c0dc9cabda0b5b19db2b7bb6db6d50108a9bee48c64736f6c63430008110033",
  "devdoc": {
    "kind": "dev",
    "methods": {},
    "version": 1
  },
  "userdoc": {
    "kind": "user",
    "methods": {},
    "version": 1
  },
  "storageLayout": {
    "storage": [
      {
        "astId": 28,
        "contract": "contracts/Campaign.sol:Campaign",
        "label": "s_contributerFund",
        "offset": 0,
        "slot": "0",
        "type": "t_mapping(t_address,t_uint256)"
      },
      {
        "astId": 34,
        "contract": "contracts/Campaign.sol:Campaign",
        "label": "s_TotalFunded",
        "offset": 0,
        "slot": "1",
        "type": "t_uint256"
      },
      {
        "astId": 36,
        "contract": "contracts/Campaign.sol:Campaign",
        "label": "s_owner",
        "offset": 0,
        "slot": "2",
        "type": "t_address"
      },
      {
        "astId": 40,
        "contract": "contracts/Campaign.sol:Campaign",
        "label": "s_requests",
        "offset": 0,
        "slot": "3",
        "type": "t_array(t_struct(Request)735_storage)dyn_storage"
      },
      {
        "astId": 43,
        "contract": "contracts/Campaign.sol:Campaign",
        "label": "s_contributers",
        "offset": 0,
        "slot": "4",
        "type": "t_array(t_address)dyn_storage"
      }
    ],
    "types": {
      "t_address": {
        "encoding": "inplace",
        "label": "address",
        "numberOfBytes": "20"
      },
      "t_array(t_address)dyn_storage": {
        "base": "t_address",
        "encoding": "dynamic_array",
        "label": "address[]",
        "numberOfBytes": "32"
      },
      "t_array(t_struct(Request)735_storage)dyn_storage": {
        "base": "t_struct(Request)735_storage",
        "encoding": "dynamic_array",
        "label": "struct Stake.Request[]",
        "numberOfBytes": "32"
      },
      "t_bool": {
        "encoding": "inplace",
        "label": "bool",
        "numberOfBytes": "1"
      },
      "t_enum(permission)538": {
        "encoding": "inplace",
        "label": "enum CampaignLib.permission",
        "numberOfBytes": "1"
      },
      "t_mapping(t_address,t_bool)": {
        "encoding": "mapping",
        "key": "t_address",
        "label": "mapping(address => bool)",
        "numberOfBytes": "32",
        "value": "t_bool"
      },
      "t_mapping(t_address,t_uint256)": {
        "encoding": "mapping",
        "key": "t_address",
        "label": "mapping(address => uint256)",
        "numberOfBytes": "32",
        "value": "t_uint256"
      },
      "t_struct(Request)735_storage": {
        "encoding": "inplace",
        "label": "struct Stake.Request",
        "members": [
          {
            "astId": 717,
            "contract": "contracts/Campaign.sol:Campaign",
            "label": "contributersVoted",
            "offset": 0,
            "slot": "0",
            "type": "t_mapping(t_address,t_bool)"
          },
          {
            "astId": 719,
            "contract": "contracts/Campaign.sol:Campaign",
            "label": "durationOfRequest",
            "offset": 0,
            "slot": "1",
            "type": "t_uint256"
          },
          {
            "astId": 721,
            "contract": "contracts/Campaign.sol:Campaign",
            "label": "requestedAmount",
            "offset": 0,
            "slot": "2",
            "type": "t_uint256"
          },
          {
            "astId": 723,
            "contract": "contracts/Campaign.sol:Campaign",
            "label": "requestedTime",
            "offset": 0,
            "slot": "3",
            "type": "t_uint256"
          },
          {
            "astId": 725,
            "contract": "contracts/Campaign.sol:Campaign",
            "label": "campaignAddress",
            "offset": 0,
            "slot": "4",
            "type": "t_address"
          },
          {
            "astId": 727,
            "contract": "contracts/Campaign.sol:Campaign",
            "label": "totalAcceptVote",
            "offset": 0,
            "slot": "5",
            "type": "t_uint256"
          },
          {
            "astId": 729,
            "contract": "contracts/Campaign.sol:Campaign",
            "label": "totalRejectVote",
            "offset": 0,
            "slot": "6",
            "type": "t_uint256"
          },
          {
            "astId": 732,
            "contract": "contracts/Campaign.sol:Campaign",
            "label": "currentStatus",
            "offset": 0,
            "slot": "7",
            "type": "t_enum(permission)538"
          },
          {
            "astId": 734,
            "contract": "contracts/Campaign.sol:Campaign",
            "label": "amountRecieved",
            "offset": 1,
            "slot": "7",
            "type": "t_bool"
          }
        ],
        "numberOfBytes": "256"
      },
      "t_uint256": {
        "encoding": "inplace",
        "label": "uint256",
        "numberOfBytes": "32"
      }
    }
  }
}