{
  "address": "0xfe4D9072BcDeC21B8b6DBD2428FC1940f76255Df",
  "abi": [
    {
      "inputs": [
        {
          "internalType": "uint256",
          "name": "campaignGoal",
          "type": "uint256"
        },
        {
          "internalType": "uint256",
          "name": "minContribution",
          "type": "uint256"
        }
      ],
      "stateMutability": "nonpayable",
      "type": "constructor"
    },
    {
      "inputs": [],
      "name": "Campaign__ContributionTransactionFailed",
      "type": "error"
    },
    {
      "inputs": [],
      "name": "Campaign__NoEnoughAmount",
      "type": "error"
    },
    {
      "inputs": [],
      "name": "Campaign__NotEnoughToWithdraw",
      "type": "error"
    },
    {
      "inputs": [],
      "name": "Campaign__NotOwner",
      "type": "error"
    },
    {
      "inputs": [],
      "name": "Campaign__RequestIsUnderProcess",
      "type": "error"
    },
    {
      "inputs": [],
      "name": "Campaign__RequestRejected",
      "type": "error"
    },
    {
      "inputs": [],
      "name": "Campaign__SendMinFund",
      "type": "error"
    },
    {
      "inputs": [],
      "name": "Campaign__WithdrawTransactionFailed",
      "type": "error"
    },
    {
      "inputs": [],
      "name": "Stake__ContributerAlreadyVoted",
      "type": "error"
    },
    {
      "inputs": [],
      "name": "Stake__DeadLineReached",
      "type": "error"
    },
    {
      "inputs": [],
      "name": "Stake__DeadlineNotReached",
      "type": "error"
    },
    {
      "anonymous": false,
      "inputs": [
        {
          "indexed": false,
          "internalType": "address",
          "name": "from",
          "type": "address"
        },
        {
          "indexed": false,
          "internalType": "uint256",
          "name": "fundedAmount",
          "type": "uint256"
        }
      ],
      "name": "FundTransfered",
      "type": "event"
    },
    {
      "anonymous": false,
      "inputs": [
        {
          "indexed": false,
          "internalType": "uint256",
          "name": "amountWithdrawed",
          "type": "uint256"
        }
      ],
      "name": "FundWithdrawed",
      "type": "event"
    },
    {
      "anonymous": false,
      "inputs": [
        {
          "indexed": false,
          "internalType": "address",
          "name": "from",
          "type": "address"
        },
        {
          "indexed": false,
          "internalType": "address",
          "name": "to",
          "type": "address"
        }
      ],
      "name": "OwnershipTransfered",
      "type": "event"
    },
    {
      "anonymous": false,
      "inputs": [
        {
          "indexed": false,
          "internalType": "uint256",
          "name": "requestIndex",
          "type": "uint256"
        }
      ],
      "name": "RequestApplied",
      "type": "event"
    },
    {
      "anonymous": false,
      "inputs": [
        {
          "indexed": false,
          "internalType": "uint256",
          "name": "requestIndex",
          "type": "uint256"
        },
        {
          "indexed": false,
          "internalType": "bool",
          "name": "approved",
          "type": "bool"
        }
      ],
      "name": "RequestResult",
      "type": "event"
    },
    {
      "inputs": [],
      "name": "contribute",
      "outputs": [],
      "stateMutability": "payable",
      "type": "function"
    },
    {
      "inputs": [
        {
          "internalType": "uint256",
          "name": "requestIndex",
          "type": "uint256"
        }
      ],
      "name": "executeResult",
      "outputs": [],
      "stateMutability": "nonpayable",
      "type": "function"
    },
    {
      "inputs": [],
      "name": "getCampaignGoal",
      "outputs": [
        {
          "internalType": "uint256",
          "name": "",
          "type": "uint256"
        }
      ],
      "stateMutability": "view",
      "type": "function"
    },
    {
      "inputs": [],
      "name": "getContributors",
      "outputs": [
        {
          "internalType": "address[]",
          "name": "",
          "type": "address[]"
        }
      ],
      "stateMutability": "view",
      "type": "function"
    },
    {
      "inputs": [
        {
          "internalType": "address",
          "name": "contributerAddress",
          "type": "address"
        }
      ],
      "name": "getContributorsFundAmount",
      "outputs": [
        {
          "internalType": "uint256",
          "name": "",
          "type": "uint256"
        }
      ],
      "stateMutability": "view",
      "type": "function"
    },
    {
      "inputs": [],
      "name": "getCurrentFundInContract",
      "outputs": [
        {
          "internalType": "uint256",
          "name": "",
          "type": "uint256"
        }
      ],
      "stateMutability": "view",
      "type": "function"
    },
    {
      "inputs": [
        {
          "internalType": "address",
          "name": "contributer",
          "type": "address"
        }
      ],
      "name": "getFundByAddress",
      "outputs": [
        {
          "internalType": "uint256",
          "name": "",
          "type": "uint256"
        }
      ],
      "stateMutability": "view",
      "type": "function"
    },
    {
      "inputs": [],
      "name": "getOwnerAddress",
      "outputs": [
        {
          "internalType": "address",
          "name": "",
          "type": "address"
        }
      ],
      "stateMutability": "view",
      "type": "function"
    },
    {
      "inputs": [
        {
          "internalType": "uint256",
          "name": "requestId",
          "type": "uint256"
        }
      ],
      "name": "getRequestInfo",
      "outputs": [
        {
          "internalType": "uint256",
          "name": "",
          "type": "uint256"
        },
        {
          "internalType": "uint256",
          "name": "",
          "type": "uint256"
        },
        {
          "internalType": "uint256",
          "name": "",
          "type": "uint256"
        },
        {
          "internalType": "uint256",
          "name": "",
          "type": "uint256"
        },
        {
          "internalType": "bool",
          "name": "",
          "type": "bool"
        }
      ],
      "stateMutability": "view",
      "type": "function"
    },
    {
      "inputs": [
        {
          "internalType": "uint256",
          "name": "requestId",
          "type": "uint256"
        }
      ],
      "name": "getRequestStatus",
      "outputs": [
        {
          "internalType": "uint32",
          "name": "",
          "type": "uint32"
        }
      ],
      "stateMutability": "view",
      "type": "function"
    },
    {
      "inputs": [],
      "name": "getTotalContributers",
      "outputs": [
        {
          "internalType": "uint256",
          "name": "",
          "type": "uint256"
        }
      ],
      "stateMutability": "view",
      "type": "function"
    },
    {
      "inputs": [],
      "name": "getTotalFund",
      "outputs": [
        {
          "internalType": "uint256",
          "name": "",
          "type": "uint256"
        }
      ],
      "stateMutability": "view",
      "type": "function"
    },
    {
      "inputs": [
        {
          "internalType": "uint256",
          "name": "_durationOfRequest",
          "type": "uint256"
        },
        {
          "internalType": "uint256",
          "name": "_withdrawAmount",
          "type": "uint256"
        }
      ],
      "name": "makeRequest",
      "outputs": [],
      "stateMutability": "nonpayable",
      "type": "function"
    },
    {
      "inputs": [
        {
          "internalType": "address",
          "name": "",
          "type": "address"
        }
      ],
      "name": "s_contributerFund",
      "outputs": [
        {
          "internalType": "uint256",
          "name": "",
          "type": "uint256"
        }
      ],
      "stateMutability": "view",
      "type": "function"
    },
    {
      "inputs": [
        {
          "internalType": "uint256",
          "name": "requestId",
          "type": "uint256"
        },
        {
          "internalType": "enum CampaignLib.vote",
          "name": "myVote",
          "type": "uint8"
        }
      ],
      "name": "stakeInRequest",
      "outputs": [],
      "stateMutability": "nonpayable",
      "type": "function"
    },
    {
      "inputs": [
        {
          "internalType": "address",
          "name": "to",
          "type": "address"
        }
      ],
      "name": "transferOwnerShip",
      "outputs": [],
      "stateMutability": "nonpayable",
      "type": "function"
    },
    {
      "inputs": [
        {
          "internalType": "uint256",
          "name": "requestIndex",
          "type": "uint256"
        }
      ],
      "name": "withdraw",
      "outputs": [],
      "stateMutability": "payable",
      "type": "function"
    }
  ],
  "transactionHash": "0x9e6543a0f5701dd54b40b5b67c801d7bc4649edab3ce93cf9080b2289ed9f34d",
  "args": [
    "1000000000000000000000",
    "10000000000000000"
  ],
  "numDeployments": 4,
  "solcInputHash": "30c8ea9e129e09cf4d2aa169bf9bd725",
  "bytecode": "0x60c06040523480156200001157600080fd5b5060405162001b4138038062001b418339818101604052810190620000379190620000d0565b81608081815250508060a0818152505033600260006101000a81548173ffffffffffffffffffffffffffffffffffffffff021916908373ffffffffffffffffffffffffffffffffffffffff160217905550505062000117565b600080fd5b6000819050919050565b620000aa8162000095565b8114620000b657600080fd5b50565b600081519050620000ca816200009f565b92915050565b60008060408385031215620000ea57620000e962000090565b5b6000620000fa85828601620000b9565b92505060206200010d85828601620000b9565b9150509250929050565b60805160a051611a046200013d6000396000610d800152600061096f0152611a046000f3fe6080604052600436106100fe5760003560e01c80639fd813e311610095578063c7abca4711610064578063c7abca4714610318578063d7bb99ba14610355578063d8a4676f1461035f578063e4d89cf61461039c578063fd6bc8b8146103d9576100fe565b80639fd813e314610270578063af157c191461029b578063b93863df146102c6578063ba565859146102ef576100fe565b80634b73212b116100d15780634b73212b146101b65780637018a7af146101f357806372b47b841461021c5780638863dd1a14610247576100fe565b806309d387da146101035780630b8160451461012e5780630c4f65bd1461016f5780632e1a7d4d1461019a575b600080fd5b34801561010f57600080fd5b50610118610404565b604051610125919061141b565b60405180910390f35b34801561013a57600080fd5b5061015560048036038101906101509190611467565b61040c565b6040516101669594939291906114af565b60405180910390f35b34801561017b57600080fd5b50610184610511565b6040516101919190611543565b60405180910390f35b6101b460048036038101906101af9190611467565b61053b565b005b3480156101c257600080fd5b506101dd60048036038101906101d8919061158a565b61086d565b6040516101ea919061141b565b60405180910390f35b3480156101ff57600080fd5b5061021a60048036038101906102159190611467565b6108b5565b005b34801561022857600080fd5b5061023161096b565b60405161023e919061141b565b60405180910390f35b34801561025357600080fd5b5061026e6004803603810190610269919061158a565b610993565b005b34801561027c57600080fd5b50610285610a97565b604051610292919061141b565b60405180910390f35b3480156102a757600080fd5b506102b0610aa1565b6040516102bd9190611675565b60405180910390f35b3480156102d257600080fd5b506102ed60048036038101906102e89190611697565b610b2f565b005b3480156102fb57600080fd5b50610316600480360381019061031191906116fc565b610ce3565b005b34801561032457600080fd5b5061033f600480360381019061033a919061158a565b610d66565b60405161034c919061141b565b60405180910390f35b61035d610d7e565b005b34801561036b57600080fd5b5061038660048036038101906103819190611467565b610f88565b604051610393919061175b565b60405180910390f35b3480156103a857600080fd5b506103c360048036038101906103be919061158a565b610fd6565b6040516103d0919061141b565b60405180910390f35b3480156103e557600080fd5b506103ee61101e565b6040516103fb919061141b565b60405180910390f35b600047905090565b60008060008060006003868154811061042857610427611776565b5b9060005260206000209060080201600201546003878154811061044e5761044d611776565b5b9060005260206000209060080201600301546003888154811061047457610473611776565b5b9060005260206000209060080201600101546003898154811061049a57610499611776565b5b906000526020600020906008020160070160009054906101000a900460ff1660028111156104cb576104ca6117a5565b5b60038a815481106104df576104de611776565b5b906000526020600020906008020160070160019054906101000a900460ff169450945094509450945091939590929450565b6000600260009054906101000a900473ffffffffffffffffffffffffffffffffffffffff16905090565b600260009054906101000a900473ffffffffffffffffffffffffffffffffffffffff1673ffffffffffffffffffffffffffffffffffffffff163373ffffffffffffffffffffffffffffffffffffffff16146105c2576040517fb75c8fb100000000000000000000000000000000000000000000000000000000815260040160405180910390fd5b806105cc816108b5565b600060028111156105e0576105df6117a5565b5b61060a600383815481106105f7576105f6611776565b5b906000526020600020906008020161102b565b600281111561061c5761061b6117a5565b5b03610653576040517fbae63cc200000000000000000000000000000000000000000000000000000000815260040160405180910390fd5b600280811115610666576106656117a5565b5b6106906003838154811061067d5761067c611776565b5b906000526020600020906008020161102b565b60028111156106a2576106a16117a5565b5b036106d9576040517f3db289e300000000000000000000000000000000000000000000000000000000815260040160405180910390fd5b6000610705600384815481106106f2576106f1611776565b5b9060005260206000209060080201611046565b905080471015610741576040517f57d5fa0800000000000000000000000000000000000000000000000000000000815260040160405180910390fd5b6000600260009054906101000a900473ffffffffffffffffffffffffffffffffffffffff1673ffffffffffffffffffffffffffffffffffffffff168260405161078990611805565b60006040518083038185875af1925050503d80600081146107c6576040519150601f19603f3d011682016040523d82523d6000602084013e6107cb565b606091505b5050905080610806576040517f4c3ac88a00000000000000000000000000000000000000000000000000000000815260040160405180910390fd5b6108306003858154811061081d5761081c611776565b5b9060005260206000209060080201611054565b7f78607c3338a50a97f0960b9ebb80a74d63115b7f462a4ea45c55abb0e5a365638260405161085f919061141b565b60405180910390a150505050565b60008060008373ffffffffffffffffffffffffffffffffffffffff1673ffffffffffffffffffffffffffffffffffffffff168152602001908152602001600020549050919050565b6108df600382815481106108cc576108cb611776565b5b9060005260206000209060080201611074565b7f53d354f890b3877b85a588db153bbbce1a4b7c3fd4008a48294f78f13a13524a8160016002811115610915576109146117a5565b5b61093f6003858154811061092c5761092b611776565b5b906000526020600020906008020161102b565b6002811115610951576109506117a5565b5b1460405161096092919061181a565b60405180910390a150565b60007f0000000000000000000000000000000000000000000000000000000000000000905090565b600260009054906101000a900473ffffffffffffffffffffffffffffffffffffffff1673ffffffffffffffffffffffffffffffffffffffff163373ffffffffffffffffffffffffffffffffffffffff1614610a1a576040517fb75c8fb100000000000000000000000000000000000000000000000000000000815260040160405180910390fd5b80600260006101000a81548173ffffffffffffffffffffffffffffffffffffffff021916908373ffffffffffffffffffffffffffffffffffffffff1602179055507f0d18b5fd22306e373229b9439188228edca81207d1667f604daf6cef8aa3ee673382604051610a8c929190611843565b60405180910390a150565b6000600154905090565b60606004805480602002602001604051908101604052809291908181526020018280548015610b2557602002820191906000526020600020905b8160009054906101000a900473ffffffffffffffffffffffffffffffffffffffff1673ffffffffffffffffffffffffffffffffffffffff1681526020019060010190808311610adb575b5050505050905090565b600260009054906101000a900473ffffffffffffffffffffffffffffffffffffffff1673ffffffffffffffffffffffffffffffffffffffff163373ffffffffffffffffffffffffffffffffffffffff1614610bb6576040517fb75c8fb100000000000000000000000000000000000000000000000000000000815260040160405180910390fd5b600060036001816001815401808255809150500390600052602060002090600802019050828160010181905550818160020181905550428160030181905550600081600501819055506000816006018190555060008160070160016101000a81548160ff021916908315150217905550308160040160006101000a81548173ffffffffffffffffffffffffffffffffffffffff021916908373ffffffffffffffffffffffffffffffffffffffff16021790555060008160070160006101000a81548160ff02191690836002811115610c9157610c906117a5565b5b02179055507fa5f7f4c8f7ba98ee825a5d8b155830a9dd4e7d29fcc431c6c3bcce27776c27846001600380549050610cc9919061189b565b604051610cd6919061141b565b60405180910390a1505050565b6000610d326000803373ffffffffffffffffffffffffffffffffffffffff1673ffffffffffffffffffffffffffffffffffffffff1681526020019081526020016000205461271060015461117b565b9050610d6160038481548110610d4b57610d4a611776565b5b90600052602060002090600802018333846111e2565b505050565b60006020528060005260406000206000915090505481565b7f0000000000000000000000000000000000000000000000000000000000000000341015610dd8576040517f0cb8feec00000000000000000000000000000000000000000000000000000000815260040160405180910390fd5b60003073ffffffffffffffffffffffffffffffffffffffff1634604051610dfe90611805565b60006040518083038185875af1925050503d8060008114610e3b576040519150601f19603f3d011682016040523d82523d6000602084013e610e40565b606091505b5050905080610e7b576040517f27b8c0b700000000000000000000000000000000000000000000000000000000815260040160405180910390fd5b7f4a0f31347e3bcd7ca4807151e54057b91971fdf592fcd3056a22fa1236dea3a23334604051610eac9291906118cf565b60405180910390a1346000803373ffffffffffffffffffffffffffffffffffffffff1673ffffffffffffffffffffffffffffffffffffffff1681526020019081526020016000206000828254610f0291906118f8565b925050819055503460016000828254610f1b91906118f8565b925050819055506004339080600181540180825580915050600190039060005260206000200160009091909190916101000a81548173ffffffffffffffffffffffffffffffffffffffff021916908373ffffffffffffffffffffffffffffffffffffffff16021790555050565b600060038281548110610f9e57610f9d611776565b5b906000526020600020906008020160070160009054906101000a900460ff166002811115610fcf57610fce6117a5565b5b9050919050565b60008060008373ffffffffffffffffffffffffffffffffffffffff1673ffffffffffffffffffffffffffffffffffffffff168152602001908152602001600020549050919050565b6000600480549050905090565b60008160070160009054906101000a900460ff169050919050565b600081600201549050919050565b60018160070160016101000a81548160ff02191690831515021790555050565b8060016000611082836113c3565b905081156110ca5760008111156110c5576040517f1638298000000000000000000000000000000000000000000000000000000000815260040160405180910390fd5b611105565b60008103611104576040517fc1ae823a00000000000000000000000000000000000000000000000000000000815260040160405180910390fd5b5b8360060154846005015411156111475760018460070160006101000a81548160ff0219169083600281111561113d5761113c6117a5565b5b0217905550611175565b60028460070160006101000a81548160ff0219169083600281111561116f5761116e6117a5565b5b02179055505b50505050565b600081838561118a919061192c565b10156111c2576040517f31869caf00000000000000000000000000000000000000000000000000000000815260040160405180910390fd5b8183856111cf919061192c565b6111d9919061199d565b90509392505050565b836000806111ef836113c3565b90508115611237576000811115611232576040517f1638298000000000000000000000000000000000000000000000000000000000815260040160405180910390fd5b611272565b60008103611271576040517fc1ae823a00000000000000000000000000000000000000000000000000000000815260040160405180910390fd5b5b8660000160008673ffffffffffffffffffffffffffffffffffffffff1673ffffffffffffffffffffffffffffffffffffffff16815260200190815260200160002060009054906101000a900460ff16156112f8576040517fd2383bdc00000000000000000000000000000000000000000000000000000000815260040160405180910390fd5b60018760000160008773ffffffffffffffffffffffffffffffffffffffff1673ffffffffffffffffffffffffffffffffffffffff16815260200190815260200160002060006101000a81548160ff02191690831515021790555060006001811115611366576113656117a5565b5b866001811115611379576113786117a5565b5b0361139e578387600501600082825461139291906118f8565b925050819055506113ba565b838760060160008282546113b291906118f8565b925050819055505b50505050505050565b600080826001015483600301546113da91906118f8565b90508042106113ed5760009150506113fd565b42816113f9919061189b565b9150505b919050565b6000819050919050565b61141581611402565b82525050565b6000602082019050611430600083018461140c565b92915050565b600080fd5b61144481611402565b811461144f57600080fd5b50565b6000813590506114618161143b565b92915050565b60006020828403121561147d5761147c611436565b5b600061148b84828501611452565b91505092915050565b60008115159050919050565b6114a981611494565b82525050565b600060a0820190506114c4600083018861140c565b6114d1602083018761140c565b6114de604083018661140c565b6114eb606083018561140c565b6114f860808301846114a0565b9695505050505050565b600073ffffffffffffffffffffffffffffffffffffffff82169050919050565b600061152d82611502565b9050919050565b61153d81611522565b82525050565b60006020820190506115586000830184611534565b92915050565b61156781611522565b811461157257600080fd5b50565b6000813590506115848161155e565b92915050565b6000602082840312156115a05761159f611436565b5b60006115ae84828501611575565b91505092915050565b600081519050919050565b600082825260208201905092915050565b6000819050602082019050919050565b6115ec81611522565b82525050565b60006115fe83836115e3565b60208301905092915050565b6000602082019050919050565b6000611622826115b7565b61162c81856115c2565b9350611637836115d3565b8060005b8381101561166857815161164f88826115f2565b975061165a8361160a565b92505060018101905061163b565b5085935050505092915050565b6000602082019050818103600083015261168f8184611617565b905092915050565b600080604083850312156116ae576116ad611436565b5b60006116bc85828601611452565b92505060206116cd85828601611452565b9150509250929050565b600281106116e457600080fd5b50565b6000813590506116f6816116d7565b92915050565b6000806040838503121561171357611712611436565b5b600061172185828601611452565b9250506020611732858286016116e7565b9150509250929050565b600063ffffffff82169050919050565b6117558161173c565b82525050565b6000602082019050611770600083018461174c565b92915050565b7f4e487b7100000000000000000000000000000000000000000000000000000000600052603260045260246000fd5b7f4e487b7100000000000000000000000000000000000000000000000000000000600052602160045260246000fd5b600081905092915050565b50565b60006117ef6000836117d4565b91506117fa826117df565b600082019050919050565b6000611810826117e2565b9150819050919050565b600060408201905061182f600083018561140c565b61183c60208301846114a0565b9392505050565b60006040820190506118586000830185611534565b6118656020830184611534565b9392505050565b7f4e487b7100000000000000000000000000000000000000000000000000000000600052601160045260246000fd5b60006118a682611402565b91506118b183611402565b92508282039050818111156118c9576118c861186c565b5b92915050565b60006040820190506118e46000830185611534565b6118f1602083018461140c565b9392505050565b600061190382611402565b915061190e83611402565b92508282019050808211156119265761192561186c565b5b92915050565b600061193782611402565b915061194283611402565b925082820261195081611402565b915082820484148315176119675761196661186c565b5b5092915050565b7f4e487b7100000000000000000000000000000000000000000000000000000000600052601260045260246000fd5b60006119a882611402565b91506119b383611402565b9250826119c3576119c261196e565b5b82820490509291505056fea26469706673582212208294e0ad4d529169fd53afcbbc3aeff584ef2c1e57143e4e98d762461ef6075764736f6c63430008110033",
  "devdoc": {
    "kind": "dev",
    "methods": {},
    "version": 1
  },
  "userdoc": {
    "kind": "user",
    "methods": {},
    "version": 1
  },
  "storageLayout": {
    "storage": [
      {
        "astId": 28,
        "contract": "contracts/Campaign.sol:Campaign",
        "label": "s_contributerFund",
        "offset": 0,
        "slot": "0",
        "type": "t_mapping(t_address,t_uint256)"
      },
      {
        "astId": 34,
        "contract": "contracts/Campaign.sol:Campaign",
        "label": "s_TotalFunded",
        "offset": 0,
        "slot": "1",
        "type": "t_uint256"
      },
      {
        "astId": 36,
        "contract": "contracts/Campaign.sol:Campaign",
        "label": "s_owner",
        "offset": 0,
        "slot": "2",
        "type": "t_address"
      },
      {
        "astId": 40,
        "contract": "contracts/Campaign.sol:Campaign",
        "label": "s_requests",
        "offset": 0,
        "slot": "3",
        "type": "t_array(t_struct(Request)796_storage)dyn_storage"
      },
      {
        "astId": 43,
        "contract": "contracts/Campaign.sol:Campaign",
        "label": "s_contributers",
        "offset": 0,
        "slot": "4",
        "type": "t_array(t_address)dyn_storage"
      },
      {
        "astId": 549,
        "contract": "contracts/Campaign.sol:Campaign",
        "label": "amountRecieved",
        "offset": 0,
        "slot": "5",
        "type": "t_bool"
      }
    ],
    "types": {
      "t_address": {
        "encoding": "inplace",
        "label": "address",
        "numberOfBytes": "20"
      },
      "t_array(t_address)dyn_storage": {
        "base": "t_address",
        "encoding": "dynamic_array",
        "label": "address[]",
        "numberOfBytes": "32"
      },
      "t_array(t_struct(Request)796_storage)dyn_storage": {
        "base": "t_struct(Request)796_storage",
        "encoding": "dynamic_array",
        "label": "struct Stake.Request[]",
        "numberOfBytes": "32"
      },
      "t_bool": {
        "encoding": "inplace",
        "label": "bool",
        "numberOfBytes": "1"
      },
      "t_enum(permission)597": {
        "encoding": "inplace",
        "label": "enum CampaignLib.permission",
        "numberOfBytes": "1"
      },
      "t_mapping(t_address,t_bool)": {
        "encoding": "mapping",
        "key": "t_address",
        "label": "mapping(address => bool)",
        "numberOfBytes": "32",
        "value": "t_bool"
      },
      "t_mapping(t_address,t_uint256)": {
        "encoding": "mapping",
        "key": "t_address",
        "label": "mapping(address => uint256)",
        "numberOfBytes": "32",
        "value": "t_uint256"
      },
      "t_struct(Request)796_storage": {
        "encoding": "inplace",
        "label": "struct Stake.Request",
        "members": [
          {
            "astId": 778,
            "contract": "contracts/Campaign.sol:Campaign",
            "label": "contributersVoted",
            "offset": 0,
            "slot": "0",
            "type": "t_mapping(t_address,t_bool)"
          },
          {
            "astId": 780,
            "contract": "contracts/Campaign.sol:Campaign",
            "label": "durationOfRequest",
            "offset": 0,
            "slot": "1",
            "type": "t_uint256"
          },
          {
            "astId": 782,
            "contract": "contracts/Campaign.sol:Campaign",
            "label": "requestedAmount",
            "offset": 0,
            "slot": "2",
            "type": "t_uint256"
          },
          {
            "astId": 784,
            "contract": "contracts/Campaign.sol:Campaign",
            "label": "requestedTime",
            "offset": 0,
            "slot": "3",
            "type": "t_uint256"
          },
          {
            "astId": 786,
            "contract": "contracts/Campaign.sol:Campaign",
            "label": "campaignAddress",
            "offset": 0,
            "slot": "4",
            "type": "t_address"
          },
          {
            "astId": 788,
            "contract": "contracts/Campaign.sol:Campaign",
            "label": "totalAcceptVote",
            "offset": 0,
            "slot": "5",
            "type": "t_uint256"
          },
          {
            "astId": 790,
            "contract": "contracts/Campaign.sol:Campaign",
            "label": "totalRejectVote",
            "offset": 0,
            "slot": "6",
            "type": "t_uint256"
          },
          {
            "astId": 793,
            "contract": "contracts/Campaign.sol:Campaign",
            "label": "currentStatus",
            "offset": 0,
            "slot": "7",
            "type": "t_enum(permission)597"
          },
          {
            "astId": 795,
            "contract": "contracts/Campaign.sol:Campaign",
            "label": "amountRecieved",
            "offset": 1,
            "slot": "7",
            "type": "t_bool"
          }
        ],
        "numberOfBytes": "256"
      },
      "t_uint256": {
        "encoding": "inplace",
        "label": "uint256",
        "numberOfBytes": "32"
      }
    }
  }
}