{
  "address": "0x3B24befF8D6C5556D0CE863e786C49F49896bFe5",
  "abi": [
    {
      "inputs": [
        {
          "internalType": "uint256",
          "name": "campaignGoal",
          "type": "uint256"
        },
        {
          "internalType": "uint256",
          "name": "minContribution",
          "type": "uint256"
        }
      ],
      "stateMutability": "nonpayable",
      "type": "constructor"
    },
    {
      "inputs": [],
      "name": "Campaign__ContributionTransactionFailed",
      "type": "error"
    },
    {
      "inputs": [],
      "name": "Campaign__NoEnoughAmount",
      "type": "error"
    },
    {
      "inputs": [],
      "name": "Campaign__NotEnoughToWithdraw",
      "type": "error"
    },
    {
      "inputs": [],
      "name": "Campaign__NotOwner",
      "type": "error"
    },
    {
      "inputs": [],
      "name": "Campaign__RequestIsUnderProcess",
      "type": "error"
    },
    {
      "inputs": [],
      "name": "Campaign__RequestRejected",
      "type": "error"
    },
    {
      "inputs": [],
      "name": "Campaign__SendMinFund",
      "type": "error"
    },
    {
      "inputs": [],
      "name": "Campaign__WithdrawTransactionFailed",
      "type": "error"
    },
    {
      "inputs": [],
      "name": "Stake__ContributerAlreadyVoted",
      "type": "error"
    },
    {
      "inputs": [],
      "name": "Stake__DeadLineReached",
      "type": "error"
    },
    {
      "inputs": [],
      "name": "Stake__DeadlineNotReached",
      "type": "error"
    },
    {
      "anonymous": false,
      "inputs": [
        {
          "indexed": false,
          "internalType": "address",
          "name": "from",
          "type": "address"
        },
        {
          "indexed": false,
          "internalType": "uint256",
          "name": "fundedAmount",
          "type": "uint256"
        }
      ],
      "name": "FundTransfered",
      "type": "event"
    },
    {
      "anonymous": false,
      "inputs": [
        {
          "indexed": false,
          "internalType": "uint256",
          "name": "amountWithdrawed",
          "type": "uint256"
        }
      ],
      "name": "FundWithdrawed",
      "type": "event"
    },
    {
      "anonymous": false,
      "inputs": [
        {
          "indexed": false,
          "internalType": "address",
          "name": "from",
          "type": "address"
        },
        {
          "indexed": false,
          "internalType": "address",
          "name": "to",
          "type": "address"
        }
      ],
      "name": "OwnershipTransfered",
      "type": "event"
    },
    {
      "anonymous": false,
      "inputs": [
        {
          "indexed": false,
          "internalType": "uint256",
          "name": "requestIndex",
          "type": "uint256"
        }
      ],
      "name": "RequestApplied",
      "type": "event"
    },
    {
      "anonymous": false,
      "inputs": [
        {
          "indexed": false,
          "internalType": "uint256",
          "name": "requestIndex",
          "type": "uint256"
        },
        {
          "indexed": false,
          "internalType": "bool",
          "name": "approved",
          "type": "bool"
        }
      ],
      "name": "RequestResult",
      "type": "event"
    },
    {
      "inputs": [],
      "name": "contribute",
      "outputs": [],
      "stateMutability": "payable",
      "type": "function"
    },
    {
      "inputs": [
        {
          "internalType": "uint256",
          "name": "requestIndex",
          "type": "uint256"
        }
      ],
      "name": "executeResult",
      "outputs": [],
      "stateMutability": "nonpayable",
      "type": "function"
    },
    {
      "inputs": [],
      "name": "getCampaignGoal",
      "outputs": [
        {
          "internalType": "uint256",
          "name": "",
          "type": "uint256"
        }
      ],
      "stateMutability": "view",
      "type": "function"
    },
    {
      "inputs": [],
      "name": "getContributors",
      "outputs": [
        {
          "internalType": "address[]",
          "name": "",
          "type": "address[]"
        }
      ],
      "stateMutability": "view",
      "type": "function"
    },
    {
      "inputs": [
        {
          "internalType": "address",
          "name": "contributerAddress",
          "type": "address"
        }
      ],
      "name": "getContributorsFundAmount",
      "outputs": [
        {
          "internalType": "uint256",
          "name": "",
          "type": "uint256"
        }
      ],
      "stateMutability": "view",
      "type": "function"
    },
    {
      "inputs": [],
      "name": "getCurrentFundInContract",
      "outputs": [
        {
          "internalType": "uint256",
          "name": "",
          "type": "uint256"
        }
      ],
      "stateMutability": "view",
      "type": "function"
    },
    {
      "inputs": [
        {
          "internalType": "address",
          "name": "contributer",
          "type": "address"
        }
      ],
      "name": "getFundByAddress",
      "outputs": [
        {
          "internalType": "uint256",
          "name": "",
          "type": "uint256"
        }
      ],
      "stateMutability": "view",
      "type": "function"
    },
    {
      "inputs": [],
      "name": "getOwnerAddress",
      "outputs": [
        {
          "internalType": "address",
          "name": "",
          "type": "address"
        }
      ],
      "stateMutability": "view",
      "type": "function"
    },
    {
      "inputs": [
        {
          "internalType": "uint256",
          "name": "requestId",
          "type": "uint256"
        }
      ],
      "name": "getRequestInfo",
      "outputs": [
        {
          "internalType": "uint256",
          "name": "",
          "type": "uint256"
        },
        {
          "internalType": "uint256",
          "name": "",
          "type": "uint256"
        },
        {
          "internalType": "uint256",
          "name": "",
          "type": "uint256"
        },
        {
          "internalType": "uint256",
          "name": "",
          "type": "uint256"
        },
        {
          "internalType": "bool",
          "name": "",
          "type": "bool"
        }
      ],
      "stateMutability": "view",
      "type": "function"
    },
    {
      "inputs": [],
      "name": "getTotalContributers",
      "outputs": [
        {
          "internalType": "uint256",
          "name": "",
          "type": "uint256"
        }
      ],
      "stateMutability": "view",
      "type": "function"
    },
    {
      "inputs": [],
      "name": "getTotalFund",
      "outputs": [
        {
          "internalType": "uint256",
          "name": "",
          "type": "uint256"
        }
      ],
      "stateMutability": "view",
      "type": "function"
    },
    {
      "inputs": [
        {
          "internalType": "uint256",
          "name": "_durationOfRequest",
          "type": "uint256"
        },
        {
          "internalType": "uint256",
          "name": "_withdrawAmount",
          "type": "uint256"
        }
      ],
      "name": "makeRequest",
      "outputs": [],
      "stateMutability": "nonpayable",
      "type": "function"
    },
    {
      "inputs": [
        {
          "internalType": "address",
          "name": "",
          "type": "address"
        }
      ],
      "name": "s_contributerFund",
      "outputs": [
        {
          "internalType": "uint256",
          "name": "",
          "type": "uint256"
        }
      ],
      "stateMutability": "view",
      "type": "function"
    },
    {
      "inputs": [
        {
          "internalType": "uint256",
          "name": "requestId",
          "type": "uint256"
        },
        {
          "internalType": "enum CampaignLib.vote",
          "name": "myVote",
          "type": "uint8"
        }
      ],
      "name": "stakeInRequest",
      "outputs": [],
      "stateMutability": "nonpayable",
      "type": "function"
    },
    {
      "inputs": [
        {
          "internalType": "address",
          "name": "to",
          "type": "address"
        }
      ],
      "name": "transferOwnerShip",
      "outputs": [],
      "stateMutability": "nonpayable",
      "type": "function"
    },
    {
      "inputs": [
        {
          "internalType": "uint256",
          "name": "requestIndex",
          "type": "uint256"
        }
      ],
      "name": "withdraw",
      "outputs": [],
      "stateMutability": "payable",
      "type": "function"
    }
  ],
  "transactionHash": "0xa0872093544ef8e800b7d20f837046089034f3319f1bf9f1862bbc58f65e9af8",
  "args": [
    "1000000000000000000000",
    "10000000000000000"
  ],
  "numDeployments": 3,
  "solcInputHash": "ffe12e5c07425e03c6d082f1cdf7d228",
  "bytecode": "0x60c06040523480156200001157600080fd5b5060405162001a7138038062001a718339818101604052810190620000379190620000d0565b81608081815250508060a0818152505033600260006101000a81548173ffffffffffffffffffffffffffffffffffffffff021916908373ffffffffffffffffffffffffffffffffffffffff160217905550505062000117565b600080fd5b6000819050919050565b620000aa8162000095565b8114620000b657600080fd5b50565b600081519050620000ca816200009f565b92915050565b60008060408385031215620000ea57620000e962000090565b5b6000620000fa85828601620000b9565b92505060206200010d85828601620000b9565b9150509250929050565b60805160a0516119346200013d6000396000610d380152600061092701526119346000f3fe6080604052600436106100f35760003560e01c80639fd813e31161008a578063c7abca4711610059578063c7abca471461030d578063d7bb99ba1461034a578063e4d89cf614610354578063fd6bc8b814610391576100f3565b80639fd813e314610265578063af157c1914610290578063b93863df146102bb578063ba565859146102e4576100f3565b80634b73212b116100c65780634b73212b146101ab5780637018a7af146101e857806372b47b84146102115780638863dd1a1461023c576100f3565b806309d387da146100f85780630b816045146101235780630c4f65bd146101645780632e1a7d4d1461018f575b600080fd5b34801561010457600080fd5b5061010d6103bc565b60405161011a9190611385565b60405180910390f35b34801561012f57600080fd5b5061014a600480360381019061014591906113d1565b6103c4565b60405161015b959493929190611419565b60405180910390f35b34801561017057600080fd5b506101796104c9565b60405161018691906114ad565b60405180910390f35b6101a960048036038101906101a491906113d1565b6104f3565b005b3480156101b757600080fd5b506101d260048036038101906101cd91906114f4565b610825565b6040516101df9190611385565b60405180910390f35b3480156101f457600080fd5b5061020f600480360381019061020a91906113d1565b61086d565b005b34801561021d57600080fd5b50610226610923565b6040516102339190611385565b60405180910390f35b34801561024857600080fd5b50610263600480360381019061025e91906114f4565b61094b565b005b34801561027157600080fd5b5061027a610a4f565b6040516102879190611385565b60405180910390f35b34801561029c57600080fd5b506102a5610a59565b6040516102b291906115df565b60405180910390f35b3480156102c757600080fd5b506102e260048036038101906102dd9190611601565b610ae7565b005b3480156102f057600080fd5b5061030b60048036038101906103069190611666565b610c9b565b005b34801561031957600080fd5b50610334600480360381019061032f91906114f4565b610d1e565b6040516103419190611385565b60405180910390f35b610352610d36565b005b34801561036057600080fd5b5061037b600480360381019061037691906114f4565b610f40565b6040516103889190611385565b60405180910390f35b34801561039d57600080fd5b506103a6610f88565b6040516103b39190611385565b60405180910390f35b600047905090565b6000806000806000600386815481106103e0576103df6116a6565b5b90600052602060002090600802016002015460038781548110610406576104056116a6565b5b9060005260206000209060080201600301546003888154811061042c5761042b6116a6565b5b90600052602060002090600802016001015460038981548110610452576104516116a6565b5b906000526020600020906008020160070160009054906101000a900460ff166002811115610483576104826116d5565b5b60038a81548110610497576104966116a6565b5b906000526020600020906008020160070160019054906101000a900460ff169450945094509450945091939590929450565b6000600260009054906101000a900473ffffffffffffffffffffffffffffffffffffffff16905090565b600260009054906101000a900473ffffffffffffffffffffffffffffffffffffffff1673ffffffffffffffffffffffffffffffffffffffff163373ffffffffffffffffffffffffffffffffffffffff161461057a576040517fb75c8fb100000000000000000000000000000000000000000000000000000000815260040160405180910390fd5b806105848161086d565b60006002811115610598576105976116d5565b5b6105c2600383815481106105af576105ae6116a6565b5b9060005260206000209060080201610f95565b60028111156105d4576105d36116d5565b5b0361060b576040517fbae63cc200000000000000000000000000000000000000000000000000000000815260040160405180910390fd5b60028081111561061e5761061d6116d5565b5b61064860038381548110610635576106346116a6565b5b9060005260206000209060080201610f95565b600281111561065a576106596116d5565b5b03610691576040517f3db289e300000000000000000000000000000000000000000000000000000000815260040160405180910390fd5b60006106bd600384815481106106aa576106a96116a6565b5b9060005260206000209060080201610fb0565b9050804710156106f9576040517f57d5fa0800000000000000000000000000000000000000000000000000000000815260040160405180910390fd5b6000600260009054906101000a900473ffffffffffffffffffffffffffffffffffffffff1673ffffffffffffffffffffffffffffffffffffffff168260405161074190611735565b60006040518083038185875af1925050503d806000811461077e576040519150601f19603f3d011682016040523d82523d6000602084013e610783565b606091505b50509050806107be576040517f4c3ac88a00000000000000000000000000000000000000000000000000000000815260040160405180910390fd5b6107e8600385815481106107d5576107d46116a6565b5b9060005260206000209060080201610fbe565b7f78607c3338a50a97f0960b9ebb80a74d63115b7f462a4ea45c55abb0e5a36563826040516108179190611385565b60405180910390a150505050565b60008060008373ffffffffffffffffffffffffffffffffffffffff1673ffffffffffffffffffffffffffffffffffffffff168152602001908152602001600020549050919050565b61089760038281548110610884576108836116a6565b5b9060005260206000209060080201610fde565b7f53d354f890b3877b85a588db153bbbce1a4b7c3fd4008a48294f78f13a13524a81600160028111156108cd576108cc6116d5565b5b6108f7600385815481106108e4576108e36116a6565b5b9060005260206000209060080201610f95565b6002811115610909576109086116d5565b5b1460405161091892919061174a565b60405180910390a150565b60007f0000000000000000000000000000000000000000000000000000000000000000905090565b600260009054906101000a900473ffffffffffffffffffffffffffffffffffffffff1673ffffffffffffffffffffffffffffffffffffffff163373ffffffffffffffffffffffffffffffffffffffff16146109d2576040517fb75c8fb100000000000000000000000000000000000000000000000000000000815260040160405180910390fd5b80600260006101000a81548173ffffffffffffffffffffffffffffffffffffffff021916908373ffffffffffffffffffffffffffffffffffffffff1602179055507f0d18b5fd22306e373229b9439188228edca81207d1667f604daf6cef8aa3ee673382604051610a44929190611773565b60405180910390a150565b6000600154905090565b60606004805480602002602001604051908101604052809291908181526020018280548015610add57602002820191906000526020600020905b8160009054906101000a900473ffffffffffffffffffffffffffffffffffffffff1673ffffffffffffffffffffffffffffffffffffffff1681526020019060010190808311610a93575b5050505050905090565b600260009054906101000a900473ffffffffffffffffffffffffffffffffffffffff1673ffffffffffffffffffffffffffffffffffffffff163373ffffffffffffffffffffffffffffffffffffffff1614610b6e576040517fb75c8fb100000000000000000000000000000000000000000000000000000000815260040160405180910390fd5b600060036001816001815401808255809150500390600052602060002090600802019050828160010181905550818160020181905550428160030181905550600081600501819055506000816006018190555060008160070160016101000a81548160ff021916908315150217905550308160040160006101000a81548173ffffffffffffffffffffffffffffffffffffffff021916908373ffffffffffffffffffffffffffffffffffffffff16021790555060008160070160006101000a81548160ff02191690836002811115610c4957610c486116d5565b5b02179055507fa5f7f4c8f7ba98ee825a5d8b155830a9dd4e7d29fcc431c6c3bcce27776c27846001600380549050610c8191906117cb565b604051610c8e9190611385565b60405180910390a1505050565b6000610cea6000803373ffffffffffffffffffffffffffffffffffffffff1673ffffffffffffffffffffffffffffffffffffffff168152602001908152602001600020546127106001546110e5565b9050610d1960038481548110610d0357610d026116a6565b5b906000526020600020906008020183338461114c565b505050565b60006020528060005260406000206000915090505481565b7f0000000000000000000000000000000000000000000000000000000000000000341015610d90576040517f0cb8feec00000000000000000000000000000000000000000000000000000000815260040160405180910390fd5b60003073ffffffffffffffffffffffffffffffffffffffff1634604051610db690611735565b60006040518083038185875af1925050503d8060008114610df3576040519150601f19603f3d011682016040523d82523d6000602084013e610df8565b606091505b5050905080610e33576040517f27b8c0b700000000000000000000000000000000000000000000000000000000815260040160405180910390fd5b7f4a0f31347e3bcd7ca4807151e54057b91971fdf592fcd3056a22fa1236dea3a23334604051610e649291906117ff565b60405180910390a1346000803373ffffffffffffffffffffffffffffffffffffffff1673ffffffffffffffffffffffffffffffffffffffff1681526020019081526020016000206000828254610eba9190611828565b925050819055503460016000828254610ed39190611828565b925050819055506004339080600181540180825580915050600190039060005260206000200160009091909190916101000a81548173ffffffffffffffffffffffffffffffffffffffff021916908373ffffffffffffffffffffffffffffffffffffffff16021790555050565b60008060008373ffffffffffffffffffffffffffffffffffffffff1673ffffffffffffffffffffffffffffffffffffffff168152602001908152602001600020549050919050565b6000600480549050905090565b60008160070160009054906101000a900460ff169050919050565b600081600201549050919050565b60018160070160016101000a81548160ff02191690831515021790555050565b8060016000610fec8361132d565b9050811561103457600081111561102f576040517f1638298000000000000000000000000000000000000000000000000000000000815260040160405180910390fd5b61106f565b6000810361106e576040517fc1ae823a00000000000000000000000000000000000000000000000000000000815260040160405180910390fd5b5b8360060154846005015411156110b15760018460070160006101000a81548160ff021916908360028111156110a7576110a66116d5565b5b02179055506110df565b60028460070160006101000a81548160ff021916908360028111156110d9576110d86116d5565b5b02179055505b50505050565b60008183856110f4919061185c565b101561112c576040517f31869caf00000000000000000000000000000000000000000000000000000000815260040160405180910390fd5b818385611139919061185c565b61114391906118cd565b90509392505050565b836000806111598361132d565b905081156111a157600081111561119c576040517f1638298000000000000000000000000000000000000000000000000000000000815260040160405180910390fd5b6111dc565b600081036111db576040517fc1ae823a00000000000000000000000000000000000000000000000000000000815260040160405180910390fd5b5b8660000160008673ffffffffffffffffffffffffffffffffffffffff1673ffffffffffffffffffffffffffffffffffffffff16815260200190815260200160002060009054906101000a900460ff1615611262576040517fd2383bdc00000000000000000000000000000000000000000000000000000000815260040160405180910390fd5b60018760000160008773ffffffffffffffffffffffffffffffffffffffff1673ffffffffffffffffffffffffffffffffffffffff16815260200190815260200160002060006101000a81548160ff021916908315150217905550600060018111156112d0576112cf6116d5565b5b8660018111156112e3576112e26116d5565b5b0361130857838760050160008282546112fc9190611828565b92505081905550611324565b8387600601600082825461131c9190611828565b925050819055505b50505050505050565b600080826001015483600301546113449190611828565b9050804210611357576000915050611367565b428161136391906117cb565b9150505b919050565b6000819050919050565b61137f8161136c565b82525050565b600060208201905061139a6000830184611376565b92915050565b600080fd5b6113ae8161136c565b81146113b957600080fd5b50565b6000813590506113cb816113a5565b92915050565b6000602082840312156113e7576113e66113a0565b5b60006113f5848285016113bc565b91505092915050565b60008115159050919050565b611413816113fe565b82525050565b600060a08201905061142e6000830188611376565b61143b6020830187611376565b6114486040830186611376565b6114556060830185611376565b611462608083018461140a565b9695505050505050565b600073ffffffffffffffffffffffffffffffffffffffff82169050919050565b60006114978261146c565b9050919050565b6114a78161148c565b82525050565b60006020820190506114c2600083018461149e565b92915050565b6114d18161148c565b81146114dc57600080fd5b50565b6000813590506114ee816114c8565b92915050565b60006020828403121561150a576115096113a0565b5b6000611518848285016114df565b91505092915050565b600081519050919050565b600082825260208201905092915050565b6000819050602082019050919050565b6115568161148c565b82525050565b6000611568838361154d565b60208301905092915050565b6000602082019050919050565b600061158c82611521565b611596818561152c565b93506115a18361153d565b8060005b838110156115d25781516115b9888261155c565b97506115c483611574565b9250506001810190506115a5565b5085935050505092915050565b600060208201905081810360008301526115f98184611581565b905092915050565b60008060408385031215611618576116176113a0565b5b6000611626858286016113bc565b9250506020611637858286016113bc565b9150509250929050565b6002811061164e57600080fd5b50565b60008135905061166081611641565b92915050565b6000806040838503121561167d5761167c6113a0565b5b600061168b858286016113bc565b925050602061169c85828601611651565b9150509250929050565b7f4e487b7100000000000000000000000000000000000000000000000000000000600052603260045260246000fd5b7f4e487b7100000000000000000000000000000000000000000000000000000000600052602160045260246000fd5b600081905092915050565b50565b600061171f600083611704565b915061172a8261170f565b600082019050919050565b600061174082611712565b9150819050919050565b600060408201905061175f6000830185611376565b61176c602083018461140a565b9392505050565b6000604082019050611788600083018561149e565b611795602083018461149e565b9392505050565b7f4e487b7100000000000000000000000000000000000000000000000000000000600052601160045260246000fd5b60006117d68261136c565b91506117e18361136c565b92508282039050818111156117f9576117f861179c565b5b92915050565b6000604082019050611814600083018561149e565b6118216020830184611376565b9392505050565b60006118338261136c565b915061183e8361136c565b92508282019050808211156118565761185561179c565b5b92915050565b60006118678261136c565b91506118728361136c565b92508282026118808161136c565b915082820484148315176118975761189661179c565b5b5092915050565b7f4e487b7100000000000000000000000000000000000000000000000000000000600052601260045260246000fd5b60006118d88261136c565b91506118e38361136c565b9250826118f3576118f261189e565b5b82820490509291505056fea2646970667358221220154f8e9502a57c77f5e48dc8e9524bdc79ade0864ffca44ad7cb645edef9b11364736f6c63430008110033",
  "devdoc": {
    "kind": "dev",
    "methods": {},
    "version": 1
  },
  "userdoc": {
    "kind": "user",
    "methods": {},
    "version": 1
  },
  "storageLayout": {
    "storage": [
      {
        "astId": 28,
        "contract": "contracts/Campaign.sol:Campaign",
        "label": "s_contributerFund",
        "offset": 0,
        "slot": "0",
        "type": "t_mapping(t_address,t_uint256)"
      },
      {
        "astId": 34,
        "contract": "contracts/Campaign.sol:Campaign",
        "label": "s_TotalFunded",
        "offset": 0,
        "slot": "1",
        "type": "t_uint256"
      },
      {
        "astId": 36,
        "contract": "contracts/Campaign.sol:Campaign",
        "label": "s_owner",
        "offset": 0,
        "slot": "2",
        "type": "t_address"
      },
      {
        "astId": 40,
        "contract": "contracts/Campaign.sol:Campaign",
        "label": "s_requests",
        "offset": 0,
        "slot": "3",
        "type": "t_array(t_struct(Request)776_storage)dyn_storage"
      },
      {
        "astId": 43,
        "contract": "contracts/Campaign.sol:Campaign",
        "label": "s_contributers",
        "offset": 0,
        "slot": "4",
        "type": "t_array(t_address)dyn_storage"
      }
    ],
    "types": {
      "t_address": {
        "encoding": "inplace",
        "label": "address",
        "numberOfBytes": "20"
      },
      "t_array(t_address)dyn_storage": {
        "base": "t_address",
        "encoding": "dynamic_array",
        "label": "address[]",
        "numberOfBytes": "32"
      },
      "t_array(t_struct(Request)776_storage)dyn_storage": {
        "base": "t_struct(Request)776_storage",
        "encoding": "dynamic_array",
        "label": "struct Stake.Request[]",
        "numberOfBytes": "32"
      },
      "t_bool": {
        "encoding": "inplace",
        "label": "bool",
        "numberOfBytes": "1"
      },
      "t_enum(permission)579": {
        "encoding": "inplace",
        "label": "enum CampaignLib.permission",
        "numberOfBytes": "1"
      },
      "t_mapping(t_address,t_bool)": {
        "encoding": "mapping",
        "key": "t_address",
        "label": "mapping(address => bool)",
        "numberOfBytes": "32",
        "value": "t_bool"
      },
      "t_mapping(t_address,t_uint256)": {
        "encoding": "mapping",
        "key": "t_address",
        "label": "mapping(address => uint256)",
        "numberOfBytes": "32",
        "value": "t_uint256"
      },
      "t_struct(Request)776_storage": {
        "encoding": "inplace",
        "label": "struct Stake.Request",
        "members": [
          {
            "astId": 758,
            "contract": "contracts/Campaign.sol:Campaign",
            "label": "contributersVoted",
            "offset": 0,
            "slot": "0",
            "type": "t_mapping(t_address,t_bool)"
          },
          {
            "astId": 760,
            "contract": "contracts/Campaign.sol:Campaign",
            "label": "durationOfRequest",
            "offset": 0,
            "slot": "1",
            "type": "t_uint256"
          },
          {
            "astId": 762,
            "contract": "contracts/Campaign.sol:Campaign",
            "label": "requestedAmount",
            "offset": 0,
            "slot": "2",
            "type": "t_uint256"
          },
          {
            "astId": 764,
            "contract": "contracts/Campaign.sol:Campaign",
            "label": "requestedTime",
            "offset": 0,
            "slot": "3",
            "type": "t_uint256"
          },
          {
            "astId": 766,
            "contract": "contracts/Campaign.sol:Campaign",
            "label": "campaignAddress",
            "offset": 0,
            "slot": "4",
            "type": "t_address"
          },
          {
            "astId": 768,
            "contract": "contracts/Campaign.sol:Campaign",
            "label": "totalAcceptVote",
            "offset": 0,
            "slot": "5",
            "type": "t_uint256"
          },
          {
            "astId": 770,
            "contract": "contracts/Campaign.sol:Campaign",
            "label": "totalRejectVote",
            "offset": 0,
            "slot": "6",
            "type": "t_uint256"
          },
          {
            "astId": 773,
            "contract": "contracts/Campaign.sol:Campaign",
            "label": "currentStatus",
            "offset": 0,
            "slot": "7",
            "type": "t_enum(permission)579"
          },
          {
            "astId": 775,
            "contract": "contracts/Campaign.sol:Campaign",
            "label": "amountRecieved",
            "offset": 1,
            "slot": "7",
            "type": "t_bool"
          }
        ],
        "numberOfBytes": "256"
      },
      "t_uint256": {
        "encoding": "inplace",
        "label": "uint256",
        "numberOfBytes": "32"
      }
    }
  }
}