{
  "address": "0x5D84d43B8d40567D647606C9bF34bddACcCD6Cc2",
  "abi": [
    {
      "inputs": [
        {
          "internalType": "uint256",
          "name": "campaginGoal",
          "type": "uint256"
        },
        {
          "internalType": "uint256",
          "name": "minContribution",
          "type": "uint256"
        }
      ],
      "stateMutability": "nonpayable",
      "type": "constructor"
    },
    {
      "inputs": [],
      "name": "Campagin__NotEnoughToWithdraw",
      "type": "error"
    },
    {
      "inputs": [],
      "name": "Campagin__NotOwner",
      "type": "error"
    },
    {
      "inputs": [],
      "name": "Campagin__RequestIsUnderProcess",
      "type": "error"
    },
    {
      "inputs": [],
      "name": "Campagin__RequestRejected",
      "type": "error"
    },
    {
      "inputs": [],
      "name": "Campagin__SendMinFund",
      "type": "error"
    },
    {
      "anonymous": false,
      "inputs": [
        {
          "indexed": false,
          "internalType": "address",
          "name": "from",
          "type": "address"
        },
        {
          "indexed": false,
          "internalType": "uint256",
          "name": "fundedAmount",
          "type": "uint256"
        }
      ],
      "name": "FundTransfered",
      "type": "event"
    },
    {
      "anonymous": false,
      "inputs": [
        {
          "indexed": false,
          "internalType": "uint256",
          "name": "amountWithdrawed",
          "type": "uint256"
        }
      ],
      "name": "FundWithdrawed",
      "type": "event"
    },
    {
      "anonymous": false,
      "inputs": [
        {
          "indexed": false,
          "internalType": "address",
          "name": "from",
          "type": "address"
        },
        {
          "indexed": false,
          "internalType": "address",
          "name": "to",
          "type": "address"
        }
      ],
      "name": "OwnershipTransfered",
      "type": "event"
    },
    {
      "anonymous": false,
      "inputs": [
        {
          "indexed": false,
          "internalType": "contract Stake",
          "name": "request",
          "type": "address"
        }
      ],
      "name": "RequestApplied",
      "type": "event"
    },
    {
      "inputs": [],
      "name": "contribute",
      "outputs": [],
      "stateMutability": "payable",
      "type": "function"
    },
    {
      "inputs": [],
      "name": "getContributors",
      "outputs": [
        {
          "internalType": "address[]",
          "name": "",
          "type": "address[]"
        }
      ],
      "stateMutability": "view",
      "type": "function"
    },
    {
      "inputs": [
        {
          "internalType": "address",
          "name": "contributerAddress",
          "type": "address"
        }
      ],
      "name": "getContributorsFundAmount",
      "outputs": [
        {
          "internalType": "uint256",
          "name": "",
          "type": "uint256"
        }
      ],
      "stateMutability": "view",
      "type": "function"
    },
    {
      "inputs": [],
      "name": "getCurrentFundInContract",
      "outputs": [
        {
          "internalType": "uint256",
          "name": "",
          "type": "uint256"
        }
      ],
      "stateMutability": "view",
      "type": "function"
    },
    {
      "inputs": [
        {
          "internalType": "address",
          "name": "contributer",
          "type": "address"
        }
      ],
      "name": "getFundByAddress",
      "outputs": [
        {
          "internalType": "uint256",
          "name": "",
          "type": "uint256"
        }
      ],
      "stateMutability": "view",
      "type": "function"
    },
    {
      "inputs": [],
      "name": "getOwnerAddress",
      "outputs": [
        {
          "internalType": "address",
          "name": "",
          "type": "address"
        }
      ],
      "stateMutability": "view",
      "type": "function"
    },
    {
      "inputs": [],
      "name": "getTotalFund",
      "outputs": [
        {
          "internalType": "uint256",
          "name": "",
          "type": "uint256"
        }
      ],
      "stateMutability": "view",
      "type": "function"
    },
    {
      "inputs": [
        {
          "internalType": "uint256",
          "name": "durationOfRequest",
          "type": "uint256"
        },
        {
          "internalType": "uint256",
          "name": "withdrawAmount",
          "type": "uint256"
        },
        {
          "internalType": "uint256",
          "name": "minContributionToVote",
          "type": "uint256"
        }
      ],
      "name": "makeRequest",
      "outputs": [],
      "stateMutability": "nonpayable",
      "type": "function"
    },
    {
      "inputs": [
        {
          "internalType": "address",
          "name": "",
          "type": "address"
        }
      ],
      "name": "s_contributerFund",
      "outputs": [
        {
          "internalType": "uint256",
          "name": "",
          "type": "uint256"
        }
      ],
      "stateMutability": "view",
      "type": "function"
    },
    {
      "inputs": [
        {
          "internalType": "address",
          "name": "to",
          "type": "address"
        }
      ],
      "name": "transferOwnerShip",
      "outputs": [],
      "stateMutability": "nonpayable",
      "type": "function"
    },
    {
      "inputs": [
        {
          "internalType": "uint256",
          "name": "requestIndex",
          "type": "uint256"
        }
      ],
      "name": "withdraw",
      "outputs": [],
      "stateMutability": "payable",
      "type": "function"
    }
  ],
  "transactionHash": "0xf663d75e7acac27dabe10339363c5a7fbe3137bbb03ae2362ee60c61d1f25127",
  "args": [
    "200000000000000000000",
    "200000000000000000"
  ],
  "numDeployments": 1,
  "solcInputHash": "4f5b3aafe0d8e16f6759512bc009e79f",
  "bytecode": "0x60c06040523480156200001157600080fd5b5060405162001cd638038062001cd68339818101604052810190620000379190620000d0565b81608081815250508060a0818152505033600260006101000a81548173ffffffffffffffffffffffffffffffffffffffff021916908373ffffffffffffffffffffffffffffffffffffffff160217905550505062000117565b600080fd5b6000819050919050565b620000aa8162000095565b8114620000b657600080fd5b50565b600081519050620000ca816200009f565b92915050565b60008060408385031215620000ea57620000e962000090565b5b6000620000fa85828601620000b9565b92505060206200010d85828601620000b9565b9150509250929050565b60805160a051611b9c6200013a6000396000610af9015260005050611b9c6000f3fe608060405260043610620000aa5760003560e01c80638863dd1a116200006d5780638863dd1a14620001a15780639fd813e314620001cf578063af157c1914620001ff578063c7abca47146200022f578063d7bb99ba1462000273578063e4d89cf6146200027f57620000aa565b806309d387da14620000af5780630c4f65bd14620000df5780632e1a7d4d146200010f578063352dcefe146200012f5780634b73212b146200015d575b600080fd5b348015620000bc57600080fd5b50620000c7620002c3565b604051620000d6919062000d46565b60405180910390f35b348015620000ec57600080fd5b50620000f7620002cb565b60405162000106919062000da8565b60405180910390f35b6200012d600480360381019062000127919062000dfb565b620002f5565b005b3480156200013c57600080fd5b506200015b600480360381019062000155919062000e2d565b62000811565b005b3480156200016a57600080fd5b5062000189600480360381019062000183919062000eba565b620008f6565b60405162000198919062000d46565b60405180910390f35b348015620001ae57600080fd5b50620001cd6004803603810190620001c7919062000eba565b6200093e565b005b348015620001dc57600080fd5b50620001e762000a45565b604051620001f6919062000d46565b60405180910390f35b3480156200020c57600080fd5b506200021762000a4f565b60405162000226919062000fba565b60405180910390f35b3480156200023c57600080fd5b506200025b600480360381019062000255919062000eba565b62000adf565b6040516200026a919062000d46565b60405180910390f35b6200027d62000af7565b005b3480156200028c57600080fd5b50620002ab6004803603810190620002a5919062000eba565b62000cd5565b604051620002ba919062000d46565b60405180910390f35b600047905090565b6000600260009054906101000a900473ffffffffffffffffffffffffffffffffffffffff16905090565b600260009054906101000a900473ffffffffffffffffffffffffffffffffffffffff1673ffffffffffffffffffffffffffffffffffffffff163373ffffffffffffffffffffffffffffffffffffffff16146200037d576040517fea1cacca00000000000000000000000000000000000000000000000000000000815260040160405180910390fd5b806000600281111562000395576200039462000fde565b5b60038281548110620003ac57620003ab6200100d565b5b9060005260206000200160009054906101000a900473ffffffffffffffffffffffffffffffffffffffff1673ffffffffffffffffffffffffffffffffffffffff1663bddeab776040518163ffffffff1660e01b8152600401602060405180830381865afa15801562000422573d6000803e3d6000fd5b505050506040513d601f19601f8201168201806040525081019062000448919062001064565b60028111156200045d576200045c62000fde565b5b0362000495576040517f797d189800000000000000000000000000000000000000000000000000000000815260040160405180910390fd5b600280811115620004ab57620004aa62000fde565b5b60038281548110620004c257620004c16200100d565b5b9060005260206000200160009054906101000a900473ffffffffffffffffffffffffffffffffffffffff1673ffffffffffffffffffffffffffffffffffffffff1663bddeab776040518163ffffffff1660e01b8152600401602060405180830381865afa15801562000538573d6000803e3d6000fd5b505050506040513d601f19601f820116820180604052508101906200055e919062001064565b600281111562000573576200057262000fde565b5b03620005ab576040517f81d2baa300000000000000000000000000000000000000000000000000000000815260040160405180910390fd5b600060038381548110620005c457620005c36200100d565b5b9060005260206000200160009054906101000a900473ffffffffffffffffffffffffffffffffffffffff1673ffffffffffffffffffffffffffffffffffffffff16635f3aa0e96040518163ffffffff1660e01b8152600401602060405180830381865afa1580156200063a573d6000803e3d6000fd5b505050506040513d601f19601f82011682018060405250810190620006609190620010ad565b9050804710156200069d576040517f9d545da300000000000000000000000000000000000000000000000000000000815260040160405180910390fd5b6000600260009054906101000a900473ffffffffffffffffffffffffffffffffffffffff1673ffffffffffffffffffffffffffffffffffffffff1682604051620006e79062001114565b60006040518083038185875af1925050503d806000811462000726576040519150601f19603f3d011682016040523d82523d6000602084013e6200072b565b606091505b50509050600384815481106200074657620007456200100d565b5b9060005260206000200160009054906101000a900473ffffffffffffffffffffffffffffffffffffffff1673ffffffffffffffffffffffffffffffffffffffff1663f34d24d86040518163ffffffff1660e01b8152600401600060405180830381600087803b158015620007b957600080fd5b505af1158015620007ce573d6000803e3d6000fd5b505050507f78607c3338a50a97f0960b9ebb80a74d63115b7f462a4ea45c55abb0e5a365638260405162000803919062000d46565b60405180910390a150505050565b600030848484604051620008259062000d1d565b6200083494939291906200112b565b604051809103906000f08015801562000851573d6000803e3d6000fd5b5090506003819080600181540180825580915050600190039060005260206000200160009091909190916101000a81548173ffffffffffffffffffffffffffffffffffffffff021916908373ffffffffffffffffffffffffffffffffffffffff1602179055507f0ac791f377f198ddc6bc9c1e2cf94a175cdfc1284cf7e14ff312599563d3202581604051620008e89190620011e3565b60405180910390a150505050565b60008060008373ffffffffffffffffffffffffffffffffffffffff1673ffffffffffffffffffffffffffffffffffffffff168152602001908152602001600020549050919050565b600260009054906101000a900473ffffffffffffffffffffffffffffffffffffffff1673ffffffffffffffffffffffffffffffffffffffff163373ffffffffffffffffffffffffffffffffffffffff1614620009c6576040517fea1cacca00000000000000000000000000000000000000000000000000000000815260040160405180910390fd5b80600260006101000a81548173ffffffffffffffffffffffffffffffffffffffff021916908373ffffffffffffffffffffffffffffffffffffffff1602179055507f0d18b5fd22306e373229b9439188228edca81207d1667f604daf6cef8aa3ee67338260405162000a3a92919062001200565b60405180910390a150565b6000600154905090565b6060600480548060200260200160405190810160405280929190818152602001828054801562000ad557602002820191906000526020600020905b8160009054906101000a900473ffffffffffffffffffffffffffffffffffffffff1673ffffffffffffffffffffffffffffffffffffffff168152602001906001019080831162000a8a575b5050505050905090565b60006020528060005260406000206000915090505481565b7f000000000000000000000000000000000000000000000000000000000000000034101562000b52576040517fa1c9d8ae00000000000000000000000000000000000000000000000000000000815260040160405180910390fd5b60003073ffffffffffffffffffffffffffffffffffffffff163460405162000b7a9062001114565b60006040518083038185875af1925050503d806000811462000bb9576040519150601f19603f3d011682016040523d82523d6000602084013e62000bbe565b606091505b505090507f4a0f31347e3bcd7ca4807151e54057b91971fdf592fcd3056a22fa1236dea3a2333460405162000bf59291906200122d565b60405180910390a1346000803373ffffffffffffffffffffffffffffffffffffffff1673ffffffffffffffffffffffffffffffffffffffff168152602001908152602001600020600082825462000c4d919062001289565b92505081905550346001600082825462000c68919062001289565b925050819055506004339080600181540180825580915050600190039060005260206000200160009091909190916101000a81548173ffffffffffffffffffffffffffffffffffffffff021916908373ffffffffffffffffffffffffffffffffffffffff16021790555050565b60008060008373ffffffffffffffffffffffffffffffffffffffff1673ffffffffffffffffffffffffffffffffffffffff168152602001908152602001600020549050919050565b6108a280620012c583390190565b6000819050919050565b62000d408162000d2b565b82525050565b600060208201905062000d5d600083018462000d35565b92915050565b600073ffffffffffffffffffffffffffffffffffffffff82169050919050565b600062000d908262000d63565b9050919050565b62000da28162000d83565b82525050565b600060208201905062000dbf600083018462000d97565b92915050565b600080fd5b62000dd58162000d2b565b811462000de157600080fd5b50565b60008135905062000df58162000dca565b92915050565b60006020828403121562000e145762000e1362000dc5565b5b600062000e248482850162000de4565b91505092915050565b60008060006060848603121562000e495762000e4862000dc5565b5b600062000e598682870162000de4565b935050602062000e6c8682870162000de4565b925050604062000e7f8682870162000de4565b9150509250925092565b62000e948162000d83565b811462000ea057600080fd5b50565b60008135905062000eb48162000e89565b92915050565b60006020828403121562000ed35762000ed262000dc5565b5b600062000ee38482850162000ea3565b91505092915050565b600081519050919050565b600082825260208201905092915050565b6000819050602082019050919050565b62000f238162000d83565b82525050565b600062000f37838362000f18565b60208301905092915050565b6000602082019050919050565b600062000f5d8262000eec565b62000f69818562000ef7565b935062000f768362000f08565b8060005b8381101562000fad57815162000f91888262000f29565b975062000f9e8362000f43565b92505060018101905062000f7a565b5085935050505092915050565b6000602082019050818103600083015262000fd6818462000f50565b905092915050565b7f4e487b7100000000000000000000000000000000000000000000000000000000600052602160045260246000fd5b7f4e487b7100000000000000000000000000000000000000000000000000000000600052603260045260246000fd5b600381106200104a57600080fd5b50565b6000815190506200105e816200103c565b92915050565b6000602082840312156200107d576200107c62000dc5565b5b60006200108d848285016200104d565b91505092915050565b600081519050620010a78162000dca565b92915050565b600060208284031215620010c657620010c562000dc5565b5b6000620010d68482850162001096565b91505092915050565b600081905092915050565b50565b6000620010fc600083620010df565b91506200110982620010ea565b600082019050919050565b60006200112182620010ed565b9150819050919050565b600060808201905062001142600083018762000d97565b62001151602083018662000d35565b62001160604083018562000d35565b6200116f606083018462000d35565b95945050505050565b6000819050919050565b6000620011a36200119d620011978462000d63565b62001178565b62000d63565b9050919050565b6000620011b78262001182565b9050919050565b6000620011cb82620011aa565b9050919050565b620011dd81620011be565b82525050565b6000602082019050620011fa6000830184620011d2565b92915050565b600060408201905062001217600083018562000d97565b62001226602083018462000d97565b9392505050565b600060408201905062001244600083018562000d97565b62001253602083018462000d35565b9392505050565b7f4e487b7100000000000000000000000000000000000000000000000000000000600052601160045260246000fd5b6000620012968262000d2b565b9150620012a38362000d2b565b9250828201905080821115620012be57620012bd6200125a565b5b9291505056fe60c060405234801561001057600080fd5b506040516108a23803806108a28339818101604052810190610032919061016b565b8373ffffffffffffffffffffffffffffffffffffffff1660808173ffffffffffffffffffffffffffffffffffffffff16815250508060a08181525050826001819055506000600760006101000a81548160ff0219169083600281111561009b5761009a6101d2565b5b021790555081600281905550426003819055506000600760016101000a81548160ff02191690831515021790555050505050610201565b600080fd5b600073ffffffffffffffffffffffffffffffffffffffff82169050919050565b6000610102826100d7565b9050919050565b610112816100f7565b811461011d57600080fd5b50565b60008151905061012f81610109565b92915050565b6000819050919050565b61014881610135565b811461015357600080fd5b50565b6000815190506101658161013f565b92915050565b60008060008060808587031215610185576101846100d2565b5b600061019387828801610120565b94505060206101a487828801610156565b93505060406101b587828801610156565b92505060606101c687828801610156565b91505092959194509250565b7f4e487b7100000000000000000000000000000000000000000000000000000000600052602160045260246000fd5b60805160a05161068261022060003960005050600050506106826000f3fe608060405234801561001057600080fd5b50600436106100625760003560e01c80631300a6d1146100675780635f3aa0e914610085578063604f2177146100a357806365372147146100bf578063bddeab77146100c9578063f34d24d8146100e7575b600080fd5b61006f6100f1565b60405161007c91906103c8565b60405180910390f35b61008d61012a565b60405161009a91906103c8565b60405180910390f35b6100bd60048036038101906100b8919061040d565b610134565b005b6100c761026f565b005b6100d161037b565b6040516100de91906104b1565b60405180910390f35b6100ef610392565b005b60008060015460035461010491906104fb565b9050804210610117576000915050610127565b4281610123919061052f565b9150505b90565b6000600254905090565b60008061013f6100f1565b9050811561018f576000811461018a576040517f08c379a0000000000000000000000000000000000000000000000000000000008152600401610181906105c0565b60405180910390fd5b6101d3565b600081116101d2576040517f08c379a00000000000000000000000000000000000000000000000000000000081526004016101c99061062c565b60405180910390fd5b5b600060028111156101e7576101e661043a565b5b8360028111156101fa576101f961043a565b5b0361021e5760016005600082825461021291906104fb565b9250508190555061026a565b6002808111156102315761023061043a565b5b8360028111156102445761024361043a565b5b036102685760016004600082825461025c91906104fb565b92505081905550610269565b5b5b505050565b6001600061027b6100f1565b905081156102cb57600081146102c6576040517f08c379a00000000000000000000000000000000000000000000000000000000081526004016102bd906105c0565b60405180910390fd5b61030f565b6000811161030e576040517f08c379a00000000000000000000000000000000000000000000000000000000081526004016103059061062c565b60405180910390fd5b5b600654600554111561034b576001600760006101000a81548160ff021916908360028111156103415761034061043a565b5b0217905550610377565b6002600760006101000a81548160ff021916908360028111156103715761037061043a565b5b02179055505b5050565b6000600760009054906101000a900460ff16905090565b6001600760016101000a81548160ff021916908315150217905550565b6000819050919050565b6103c2816103af565b82525050565b60006020820190506103dd60008301846103b9565b92915050565b600080fd5b600381106103f557600080fd5b50565b600081359050610407816103e8565b92915050565b600060208284031215610423576104226103e3565b5b6000610431848285016103f8565b91505092915050565b7f4e487b7100000000000000000000000000000000000000000000000000000000600052602160045260246000fd5b6003811061047a5761047961043a565b5b50565b600081905061048b82610469565b919050565b600061049b8261047d565b9050919050565b6104ab81610490565b82525050565b60006020820190506104c660008301846104a2565b92915050565b7f4e487b7100000000000000000000000000000000000000000000000000000000600052601160045260246000fd5b6000610506826103af565b9150610511836103af565b9250828201905080821115610529576105286104cc565b5b92915050565b600061053a826103af565b9150610545836103af565b925082820390508181111561055d5761055c6104cc565b5b92915050565b600082825260208201905092915050565b7f446561646c696e65206973206e6f742072656163686564207965740000000000600082015250565b60006105aa601b83610563565b91506105b582610574565b602082019050919050565b600060208201905081810360008301526105d98161059d565b9050919050565b7f446561646c696e6520697320616c726561647920726561636865640000000000600082015250565b6000610616601b83610563565b9150610621826105e0565b602082019050919050565b6000602082019050818103600083015261064581610609565b905091905056fea2646970667358221220509f10d3b227300eaae7cb0ce00aea470ecd737440d68ec61bc7445b5c7655c164736f6c63430008110033a2646970667358221220acaf7974defdb9742f31e3eb8d295cf722bf530c5751aec44f677d728fe4d61364736f6c63430008110033",
  "devdoc": {
    "kind": "dev",
    "methods": {},
    "version": 1
  },
  "userdoc": {
    "kind": "user",
    "methods": {},
    "version": 1
  },
  "storageLayout": {
    "storage": [
      {
        "astId": 19,
        "contract": "contracts/CrowdFunding.sol:CrowdFunding",
        "label": "s_contributerFund",
        "offset": 0,
        "slot": "0",
        "type": "t_mapping(t_address,t_uint256)"
      },
      {
        "astId": 25,
        "contract": "contracts/CrowdFunding.sol:CrowdFunding",
        "label": "s_TotalFunded",
        "offset": 0,
        "slot": "1",
        "type": "t_uint256"
      },
      {
        "astId": 27,
        "contract": "contracts/CrowdFunding.sol:CrowdFunding",
        "label": "s_owner",
        "offset": 0,
        "slot": "2",
        "type": "t_address"
      },
      {
        "astId": 31,
        "contract": "contracts/CrowdFunding.sol:CrowdFunding",
        "label": "s_requestes",
        "offset": 0,
        "slot": "3",
        "type": "t_array(t_contract(Stake)562)dyn_storage"
      },
      {
        "astId": 34,
        "contract": "contracts/CrowdFunding.sol:CrowdFunding",
        "label": "s_contributers",
        "offset": 0,
        "slot": "4",
        "type": "t_array(t_address)dyn_storage"
      }
    ],
    "types": {
      "t_address": {
        "encoding": "inplace",
        "label": "address",
        "numberOfBytes": "20"
      },
      "t_array(t_address)dyn_storage": {
        "base": "t_address",
        "encoding": "dynamic_array",
        "label": "address[]",
        "numberOfBytes": "32"
      },
      "t_array(t_contract(Stake)562)dyn_storage": {
        "base": "t_contract(Stake)562",
        "encoding": "dynamic_array",
        "label": "contract Stake[]",
        "numberOfBytes": "32"
      },
      "t_contract(Stake)562": {
        "encoding": "inplace",
        "label": "contract Stake",
        "numberOfBytes": "20"
      },
      "t_mapping(t_address,t_uint256)": {
        "encoding": "mapping",
        "key": "t_address",
        "label": "mapping(address => uint256)",
        "numberOfBytes": "32",
        "value": "t_uint256"
      },
      "t_uint256": {
        "encoding": "inplace",
        "label": "uint256",
        "numberOfBytes": "32"
      }
    }
  }
}