{
  "address": "0x3de5e8cA708D6bB4e8ea78862621683Fd8c0A99a",
  "abi": [
    {
      "inputs": [
        {
          "internalType": "uint256",
          "name": "campaginGoal",
          "type": "uint256"
        },
        {
          "internalType": "uint256",
          "name": "minContribution",
          "type": "uint256"
        }
      ],
      "stateMutability": "nonpayable",
      "type": "constructor"
    },
    {
      "inputs": [],
      "name": "Campagin__NotAnEligiableContributer",
      "type": "error"
    },
    {
      "inputs": [],
      "name": "Campagin__NotEnoughToWithdraw",
      "type": "error"
    },
    {
      "inputs": [],
      "name": "Campagin__NotOwner",
      "type": "error"
    },
    {
      "inputs": [],
      "name": "Campagin__RequestIsUnderProcess",
      "type": "error"
    },
    {
      "inputs": [],
      "name": "Campagin__RequestRejected",
      "type": "error"
    },
    {
      "inputs": [],
      "name": "Campagin__SendMinFund",
      "type": "error"
    },
    {
      "anonymous": false,
      "inputs": [
        {
          "indexed": false,
          "internalType": "address",
          "name": "from",
          "type": "address"
        },
        {
          "indexed": false,
          "internalType": "uint256",
          "name": "fundedAmount",
          "type": "uint256"
        }
      ],
      "name": "FundTransfered",
      "type": "event"
    },
    {
      "anonymous": false,
      "inputs": [
        {
          "indexed": false,
          "internalType": "uint256",
          "name": "amountWithdrawed",
          "type": "uint256"
        }
      ],
      "name": "FundWithdrawed",
      "type": "event"
    },
    {
      "anonymous": false,
      "inputs": [
        {
          "indexed": false,
          "internalType": "address",
          "name": "from",
          "type": "address"
        },
        {
          "indexed": false,
          "internalType": "address",
          "name": "to",
          "type": "address"
        }
      ],
      "name": "OwnershipTransfered",
      "type": "event"
    },
    {
      "anonymous": false,
      "inputs": [
        {
          "indexed": false,
          "internalType": "contract Stake",
          "name": "request",
          "type": "address"
        }
      ],
      "name": "RequestApplied",
      "type": "event"
    },
    {
      "inputs": [],
      "name": "contribute",
      "outputs": [],
      "stateMutability": "payable",
      "type": "function"
    },
    {
      "inputs": [],
      "name": "getContributors",
      "outputs": [
        {
          "internalType": "address[]",
          "name": "",
          "type": "address[]"
        }
      ],
      "stateMutability": "view",
      "type": "function"
    },
    {
      "inputs": [
        {
          "internalType": "address",
          "name": "contributerAddress",
          "type": "address"
        }
      ],
      "name": "getContributorsFundAmount",
      "outputs": [
        {
          "internalType": "uint256",
          "name": "",
          "type": "uint256"
        }
      ],
      "stateMutability": "view",
      "type": "function"
    },
    {
      "inputs": [],
      "name": "getCurrentFundInContract",
      "outputs": [
        {
          "internalType": "uint256",
          "name": "",
          "type": "uint256"
        }
      ],
      "stateMutability": "view",
      "type": "function"
    },
    {
      "inputs": [
        {
          "internalType": "address",
          "name": "contributer",
          "type": "address"
        }
      ],
      "name": "getFundByAddress",
      "outputs": [
        {
          "internalType": "uint256",
          "name": "",
          "type": "uint256"
        }
      ],
      "stateMutability": "view",
      "type": "function"
    },
    {
      "inputs": [],
      "name": "getOwnerAddress",
      "outputs": [
        {
          "internalType": "address",
          "name": "",
          "type": "address"
        }
      ],
      "stateMutability": "view",
      "type": "function"
    },
    {
      "inputs": [],
      "name": "getTotalFund",
      "outputs": [
        {
          "internalType": "uint256",
          "name": "",
          "type": "uint256"
        }
      ],
      "stateMutability": "view",
      "type": "function"
    },
    {
      "inputs": [
        {
          "internalType": "uint256",
          "name": "durationOfRequest",
          "type": "uint256"
        },
        {
          "internalType": "uint256",
          "name": "withdrawAmount",
          "type": "uint256"
        },
        {
          "internalType": "uint256",
          "name": "minContributionToVote",
          "type": "uint256"
        }
      ],
      "name": "makeRequest",
      "outputs": [],
      "stateMutability": "nonpayable",
      "type": "function"
    },
    {
      "inputs": [
        {
          "internalType": "address",
          "name": "",
          "type": "address"
        }
      ],
      "name": "s_contributerFund",
      "outputs": [
        {
          "internalType": "uint256",
          "name": "",
          "type": "uint256"
        }
      ],
      "stateMutability": "view",
      "type": "function"
    },
    {
      "inputs": [
        {
          "internalType": "uint256",
          "name": "requestId",
          "type": "uint256"
        },
        {
          "internalType": "enum withdrawLib.vote",
          "name": "myVote",
          "type": "uint8"
        }
      ],
      "name": "stakeInRequest",
      "outputs": [],
      "stateMutability": "nonpayable",
      "type": "function"
    },
    {
      "inputs": [
        {
          "internalType": "address",
          "name": "to",
          "type": "address"
        }
      ],
      "name": "transferOwnerShip",
      "outputs": [],
      "stateMutability": "nonpayable",
      "type": "function"
    },
    {
      "inputs": [
        {
          "internalType": "uint256",
          "name": "requestIndex",
          "type": "uint256"
        }
      ],
      "name": "withdraw",
      "outputs": [],
      "stateMutability": "payable",
      "type": "function"
    }
  ],
  "transactionHash": "0x147aa16e442488d91c1fa84ae7409494b69933a487415ca865e51c656153c64c",
  "args": [
    "200000000000000000000",
    "200000000000000000"
  ],
  "numDeployments": 2,
  "solcInputHash": "702d1d1a6c2122fc94d1097e67ba788b",
  "bytecode": "0x60c06040523480156200001157600080fd5b50604051620020bc380380620020bc8339818101604052810190620000379190620000d0565b81608081815250508060a0818152505033600260006101000a81548173ffffffffffffffffffffffffffffffffffffffff021916908373ffffffffffffffffffffffffffffffffffffffff160217905550505062000117565b600080fd5b6000819050919050565b620000aa8162000095565b8114620000b657600080fd5b50565b600081519050620000ca816200009f565b92915050565b60008060408385031215620000ea57620000e962000090565b5b6000620000fa85828601620000b9565b92505060206200010d85828601620000b9565b9150509250929050565b60805160a051611f826200013a6000396000610d9e015260005050611f826000f3fe608060405260043610620000b65760003560e01c80639fd813e3116200006d5780639fd813e314620001db578063af157c19146200020b578063ba565859146200023b578063c7abca471462000269578063d7bb99ba14620002ad578063e4d89cf614620002b957620000b6565b806309d387da14620000bb5780630c4f65bd14620000eb5780632e1a7d4d146200011b578063352dcefe146200013b5780634b73212b14620001695780638863dd1a14620001ad575b600080fd5b348015620000c857600080fd5b50620000d3620002fd565b604051620000e2919062000feb565b60405180910390f35b348015620000f857600080fd5b506200010362000305565b6040516200011291906200104d565b60405180910390f35b620001396004803603810190620001339190620010a0565b6200032f565b005b3480156200014857600080fd5b50620001676004803603810190620001619190620010d2565b6200084b565b005b3480156200017657600080fd5b506200019560048036038101906200018f91906200115f565b620009b8565b604051620001a4919062000feb565b60405180910390f35b348015620001ba57600080fd5b50620001d96004803603810190620001d391906200115f565b62000a00565b005b348015620001e857600080fd5b50620001f362000b07565b60405162000202919062000feb565b60405180910390f35b3480156200021857600080fd5b506200022362000b11565b6040516200023291906200125f565b60405180910390f35b3480156200024857600080fd5b50620002676004803603810190620002619190620012ab565b62000ba1565b005b3480156200027657600080fd5b506200029560048036038101906200028f91906200115f565b62000d84565b604051620002a4919062000feb565b60405180910390f35b620002b762000d9c565b005b348015620002c657600080fd5b50620002e56004803603810190620002df91906200115f565b62000f7a565b604051620002f4919062000feb565b60405180910390f35b600047905090565b6000600260009054906101000a900473ffffffffffffffffffffffffffffffffffffffff16905090565b600260009054906101000a900473ffffffffffffffffffffffffffffffffffffffff1673ffffffffffffffffffffffffffffffffffffffff163373ffffffffffffffffffffffffffffffffffffffff1614620003b7576040517fea1cacca00000000000000000000000000000000000000000000000000000000815260040160405180910390fd5b8060006002811115620003cf57620003ce620012f2565b5b60038281548110620003e657620003e562001321565b5b9060005260206000200160009054906101000a900473ffffffffffffffffffffffffffffffffffffffff1673ffffffffffffffffffffffffffffffffffffffff1663bddeab776040518163ffffffff1660e01b8152600401602060405180830381865afa1580156200045c573d6000803e3d6000fd5b505050506040513d601f19601f8201168201806040525081019062000482919062001378565b6002811115620004975762000496620012f2565b5b03620004cf576040517f797d189800000000000000000000000000000000000000000000000000000000815260040160405180910390fd5b600280811115620004e557620004e4620012f2565b5b60038281548110620004fc57620004fb62001321565b5b9060005260206000200160009054906101000a900473ffffffffffffffffffffffffffffffffffffffff1673ffffffffffffffffffffffffffffffffffffffff1663bddeab776040518163ffffffff1660e01b8152600401602060405180830381865afa15801562000572573d6000803e3d6000fd5b505050506040513d601f19601f8201168201806040525081019062000598919062001378565b6002811115620005ad57620005ac620012f2565b5b03620005e5576040517f81d2baa300000000000000000000000000000000000000000000000000000000815260040160405180910390fd5b600060038381548110620005fe57620005fd62001321565b5b9060005260206000200160009054906101000a900473ffffffffffffffffffffffffffffffffffffffff1673ffffffffffffffffffffffffffffffffffffffff16635f3aa0e96040518163ffffffff1660e01b8152600401602060405180830381865afa15801562000674573d6000803e3d6000fd5b505050506040513d601f19601f820116820180604052508101906200069a9190620013c1565b905080471015620006d7576040517f9d545da300000000000000000000000000000000000000000000000000000000815260040160405180910390fd5b6000600260009054906101000a900473ffffffffffffffffffffffffffffffffffffffff1673ffffffffffffffffffffffffffffffffffffffff1682604051620007219062001428565b60006040518083038185875af1925050503d806000811462000760576040519150601f19603f3d011682016040523d82523d6000602084013e62000765565b606091505b505090506003848154811062000780576200077f62001321565b5b9060005260206000200160009054906101000a900473ffffffffffffffffffffffffffffffffffffffff1673ffffffffffffffffffffffffffffffffffffffff1663f34d24d86040518163ffffffff1660e01b8152600401600060405180830381600087803b158015620007f357600080fd5b505af115801562000808573d6000803e3d6000fd5b505050507f78607c3338a50a97f0960b9ebb80a74d63115b7f462a4ea45c55abb0e5a36563826040516200083d919062000feb565b60405180910390a150505050565b600260009054906101000a900473ffffffffffffffffffffffffffffffffffffffff1673ffffffffffffffffffffffffffffffffffffffff163373ffffffffffffffffffffffffffffffffffffffff1614620008d3576040517fea1cacca00000000000000000000000000000000000000000000000000000000815260040160405180910390fd5b600030848484604051620008e79062000fc2565b620008f694939291906200143f565b604051809103906000f08015801562000913573d6000803e3d6000fd5b5090506003819080600181540180825580915050600190039060005260206000200160009091909190916101000a81548173ffffffffffffffffffffffffffffffffffffffff021916908373ffffffffffffffffffffffffffffffffffffffff1602179055507f0ac791f377f198ddc6bc9c1e2cf94a175cdfc1284cf7e14ff312599563d3202581604051620009aa9190620014f7565b60405180910390a150505050565b60008060008373ffffffffffffffffffffffffffffffffffffffff1673ffffffffffffffffffffffffffffffffffffffff168152602001908152602001600020549050919050565b600260009054906101000a900473ffffffffffffffffffffffffffffffffffffffff1673ffffffffffffffffffffffffffffffffffffffff163373ffffffffffffffffffffffffffffffffffffffff161462000a88576040517fea1cacca00000000000000000000000000000000000000000000000000000000815260040160405180910390fd5b80600260006101000a81548173ffffffffffffffffffffffffffffffffffffffff021916908373ffffffffffffffffffffffffffffffffffffffff1602179055507f0d18b5fd22306e373229b9439188228edca81207d1667f604daf6cef8aa3ee67338260405162000afc92919062001514565b60405180910390a150565b6000600154905090565b6060600480548060200260200160405190810160405280929190818152602001828054801562000b9757602002820191906000526020600020905b8160009054906101000a900473ffffffffffffffffffffffffffffffffffffffff1673ffffffffffffffffffffffffffffffffffffffff168152602001906001019080831162000b4c575b5050505050905090565b6003828154811062000bb85762000bb762001321565b5b9060005260206000200160009054906101000a900473ffffffffffffffffffffffffffffffffffffffff1673ffffffffffffffffffffffffffffffffffffffff1663f84038b16040518163ffffffff1660e01b8152600401602060405180830381865afa15801562000c2e573d6000803e3d6000fd5b505050506040513d601f19601f8201168201806040525081019062000c549190620013c1565b33816000808373ffffffffffffffffffffffffffffffffffffffff1673ffffffffffffffffffffffffffffffffffffffff16815260200190815260200160002054101562000cce576040517f2f8477c900000000000000000000000000000000000000000000000000000000815260040160405180910390fd5b6003848154811062000ce55762000ce462001321565b5b9060005260206000200160009054906101000a900473ffffffffffffffffffffffffffffffffffffffff1673ffffffffffffffffffffffffffffffffffffffff1663604f2177846040518263ffffffff1660e01b815260040162000d4a919062001592565b600060405180830381600087803b15801562000d6557600080fd5b505af115801562000d7a573d6000803e3d6000fd5b5050505050505050565b60006020528060005260406000206000915090505481565b7f000000000000000000000000000000000000000000000000000000000000000034101562000df7576040517fa1c9d8ae00000000000000000000000000000000000000000000000000000000815260040160405180910390fd5b60003073ffffffffffffffffffffffffffffffffffffffff163460405162000e1f9062001428565b60006040518083038185875af1925050503d806000811462000e5e576040519150601f19603f3d011682016040523d82523d6000602084013e62000e63565b606091505b505090507f4a0f31347e3bcd7ca4807151e54057b91971fdf592fcd3056a22fa1236dea3a2333460405162000e9a929190620015af565b60405180910390a1346000803373ffffffffffffffffffffffffffffffffffffffff1673ffffffffffffffffffffffffffffffffffffffff168152602001908152602001600020600082825462000ef291906200160b565b92505081905550346001600082825462000f0d91906200160b565b925050819055506004339080600181540180825580915050600190039060005260206000200160009091909190916101000a81548173ffffffffffffffffffffffffffffffffffffffff021916908373ffffffffffffffffffffffffffffffffffffffff16021790555050565b60008060008373ffffffffffffffffffffffffffffffffffffffff1673ffffffffffffffffffffffffffffffffffffffff168152602001908152602001600020549050919050565b610906806200164783390190565b6000819050919050565b62000fe58162000fd0565b82525050565b600060208201905062001002600083018462000fda565b92915050565b600073ffffffffffffffffffffffffffffffffffffffff82169050919050565b6000620010358262001008565b9050919050565b620010478162001028565b82525050565b60006020820190506200106460008301846200103c565b92915050565b600080fd5b6200107a8162000fd0565b81146200108657600080fd5b50565b6000813590506200109a816200106f565b92915050565b600060208284031215620010b957620010b86200106a565b5b6000620010c98482850162001089565b91505092915050565b600080600060608486031215620010ee57620010ed6200106a565b5b6000620010fe8682870162001089565b9350506020620011118682870162001089565b9250506040620011248682870162001089565b9150509250925092565b620011398162001028565b81146200114557600080fd5b50565b60008135905062001159816200112e565b92915050565b6000602082840312156200117857620011776200106a565b5b6000620011888482850162001148565b91505092915050565b600081519050919050565b600082825260208201905092915050565b6000819050602082019050919050565b620011c88162001028565b82525050565b6000620011dc8383620011bd565b60208301905092915050565b6000602082019050919050565b6000620012028262001191565b6200120e81856200119c565b93506200121b83620011ad565b8060005b8381101562001252578151620012368882620011ce565b97506200124383620011e8565b9250506001810190506200121f565b5085935050505092915050565b600060208201905081810360008301526200127b8184620011f5565b905092915050565b600381106200129157600080fd5b50565b600081359050620012a58162001283565b92915050565b60008060408385031215620012c557620012c46200106a565b5b6000620012d58582860162001089565b9250506020620012e88582860162001294565b9150509250929050565b7f4e487b7100000000000000000000000000000000000000000000000000000000600052602160045260246000fd5b7f4e487b7100000000000000000000000000000000000000000000000000000000600052603260045260246000fd5b600381106200135e57600080fd5b50565b600081519050620013728162001350565b92915050565b6000602082840312156200139157620013906200106a565b5b6000620013a18482850162001361565b91505092915050565b600081519050620013bb816200106f565b92915050565b600060208284031215620013da57620013d96200106a565b5b6000620013ea84828501620013aa565b91505092915050565b600081905092915050565b50565b600062001410600083620013f3565b91506200141d82620013fe565b600082019050919050565b6000620014358262001401565b9150819050919050565b60006080820190506200145660008301876200103c565b62001465602083018662000fda565b62001474604083018562000fda565b62001483606083018462000fda565b95945050505050565b6000819050919050565b6000620014b7620014b1620014ab8462001008565b6200148c565b62001008565b9050919050565b6000620014cb8262001496565b9050919050565b6000620014df82620014be565b9050919050565b620014f181620014d2565b82525050565b60006020820190506200150e6000830184620014e6565b92915050565b60006040820190506200152b60008301856200103c565b6200153a60208301846200103c565b9392505050565b60038110620015555762001554620012f2565b5b50565b6000819050620015688262001541565b919050565b60006200157a8262001558565b9050919050565b6200158c816200156d565b82525050565b6000602082019050620015a9600083018462001581565b92915050565b6000604082019050620015c660008301856200103c565b620015d5602083018462000fda565b9392505050565b7f4e487b7100000000000000000000000000000000000000000000000000000000600052601160045260246000fd5b6000620016188262000fd0565b9150620016258362000fd0565b925082820190508082111562001640576200163f620015dc565b5b9291505056fe60c060405234801561001057600080fd5b506040516109063803806109068339818101604052810190610032919061016b565b8373ffffffffffffffffffffffffffffffffffffffff1660808173ffffffffffffffffffffffffffffffffffffffff16815250508060a08181525050826001819055506000600760006101000a81548160ff0219169083600281111561009b5761009a6101d2565b5b021790555081600281905550426003819055506000600760016101000a81548160ff02191690831515021790555050505050610201565b600080fd5b600073ffffffffffffffffffffffffffffffffffffffff82169050919050565b6000610102826100d7565b9050919050565b610112816100f7565b811461011d57600080fd5b50565b60008151905061012f81610109565b92915050565b6000819050919050565b61014881610135565b811461015357600080fd5b50565b6000815190506101658161013f565b92915050565b60008060008060808587031215610185576101846100d2565b5b600061019387828801610120565b94505060206101a487828801610156565b93505060406101b587828801610156565b92505060606101c687828801610156565b91505092959194509250565b7f4e487b7100000000000000000000000000000000000000000000000000000000600052602160045260246000fd5b60805160a0516106e361022360003960006103ec0152600050506106e36000f3fe608060405234801561001057600080fd5b506004361061007d5760003560e01c8063653721471161005b57806365372147146100da578063bddeab77146100e4578063f34d24d814610102578063f84038b11461010c5761007d565b80631300a6d1146100825780635f3aa0e9146100a0578063604f2177146100be575b600080fd5b61008a61012a565b6040516100979190610429565b60405180910390f35b6100a8610163565b6040516100b59190610429565b60405180910390f35b6100d860048036038101906100d3919061046e565b61016d565b005b6100e26102a8565b005b6100ec6103b4565b6040516100f99190610512565b60405180910390f35b61010a6103cb565b005b6101146103e8565b6040516101219190610429565b60405180910390f35b60008060015460035461013d919061055c565b9050804210610150576000915050610160565b428161015c9190610590565b9150505b90565b6000600254905090565b60008061017861012a565b905081156101c857600081146101c3576040517f08c379a00000000000000000000000000000000000000000000000000000000081526004016101ba90610621565b60405180910390fd5b61020c565b6000811161020b576040517f08c379a00000000000000000000000000000000000000000000000000000000081526004016102029061068d565b60405180910390fd5b5b600060028111156102205761021f61049b565b5b8360028111156102335761023261049b565b5b036102575760016005600082825461024b919061055c565b925050819055506102a3565b60028081111561026a5761026961049b565b5b83600281111561027d5761027c61049b565b5b036102a157600160046000828254610295919061055c565b925050819055506102a2565b5b5b505050565b600160006102b461012a565b9050811561030457600081146102ff576040517f08c379a00000000000000000000000000000000000000000000000000000000081526004016102f690610621565b60405180910390fd5b610348565b60008111610347576040517f08c379a000000000000000000000000000000000000000000000000000000000815260040161033e9061068d565b60405180910390fd5b5b6006546005541115610384576001600760006101000a81548160ff0219169083600281111561037a5761037961049b565b5b02179055506103b0565b6002600760006101000a81548160ff021916908360028111156103aa576103a961049b565b5b02179055505b5050565b6000600760009054906101000a900460ff16905090565b6001600760016101000a81548160ff021916908315150217905550565b60007f0000000000000000000000000000000000000000000000000000000000000000905090565b6000819050919050565b61042381610410565b82525050565b600060208201905061043e600083018461041a565b92915050565b600080fd5b6003811061045657600080fd5b50565b60008135905061046881610449565b92915050565b60006020828403121561048457610483610444565b5b600061049284828501610459565b91505092915050565b7f4e487b7100000000000000000000000000000000000000000000000000000000600052602160045260246000fd5b600381106104db576104da61049b565b5b50565b60008190506104ec826104ca565b919050565b60006104fc826104de565b9050919050565b61050c816104f1565b82525050565b60006020820190506105276000830184610503565b92915050565b7f4e487b7100000000000000000000000000000000000000000000000000000000600052601160045260246000fd5b600061056782610410565b915061057283610410565b925082820190508082111561058a5761058961052d565b5b92915050565b600061059b82610410565b91506105a683610410565b92508282039050818111156105be576105bd61052d565b5b92915050565b600082825260208201905092915050565b7f446561646c696e65206973206e6f742072656163686564207965740000000000600082015250565b600061060b601b836105c4565b9150610616826105d5565b602082019050919050565b6000602082019050818103600083015261063a816105fe565b9050919050565b7f446561646c696e6520697320616c726561647920726561636865640000000000600082015250565b6000610677601b836105c4565b915061068282610641565b602082019050919050565b600060208201905081810360008301526106a68161066a565b905091905056fea2646970667358221220a948b1ed5106dc7273db07149fc53f6077bdb75e8e03a55489e2e681457a6e5664736f6c63430008110033a2646970667358221220501c106bdc064fa63bd686d7080705f3189f55c994232901b564a555e0740f1564736f6c63430008110033",
  "devdoc": {
    "kind": "dev",
    "methods": {},
    "version": 1
  },
  "userdoc": {
    "kind": "user",
    "methods": {},
    "version": 1
  },
  "storageLayout": {
    "storage": [
      {
        "astId": 21,
        "contract": "contracts/CrowdFunding.sol:CrowdFunding",
        "label": "s_contributerFund",
        "offset": 0,
        "slot": "0",
        "type": "t_mapping(t_address,t_uint256)"
      },
      {
        "astId": 27,
        "contract": "contracts/CrowdFunding.sol:CrowdFunding",
        "label": "s_TotalFunded",
        "offset": 0,
        "slot": "1",
        "type": "t_uint256"
      },
      {
        "astId": 29,
        "contract": "contracts/CrowdFunding.sol:CrowdFunding",
        "label": "s_owner",
        "offset": 0,
        "slot": "2",
        "type": "t_address"
      },
      {
        "astId": 33,
        "contract": "contracts/CrowdFunding.sol:CrowdFunding",
        "label": "s_requestes",
        "offset": 0,
        "slot": "3",
        "type": "t_array(t_contract(Stake)619)dyn_storage"
      },
      {
        "astId": 36,
        "contract": "contracts/CrowdFunding.sol:CrowdFunding",
        "label": "s_contributers",
        "offset": 0,
        "slot": "4",
        "type": "t_array(t_address)dyn_storage"
      }
    ],
    "types": {
      "t_address": {
        "encoding": "inplace",
        "label": "address",
        "numberOfBytes": "20"
      },
      "t_array(t_address)dyn_storage": {
        "base": "t_address",
        "encoding": "dynamic_array",
        "label": "address[]",
        "numberOfBytes": "32"
      },
      "t_array(t_contract(Stake)619)dyn_storage": {
        "base": "t_contract(Stake)619",
        "encoding": "dynamic_array",
        "label": "contract Stake[]",
        "numberOfBytes": "32"
      },
      "t_contract(Stake)619": {
        "encoding": "inplace",
        "label": "contract Stake",
        "numberOfBytes": "20"
      },
      "t_mapping(t_address,t_uint256)": {
        "encoding": "mapping",
        "key": "t_address",
        "label": "mapping(address => uint256)",
        "numberOfBytes": "32",
        "value": "t_uint256"
      },
      "t_uint256": {
        "encoding": "inplace",
        "label": "uint256",
        "numberOfBytes": "32"
      }
    }
  }
}