{
  "address": "0x4e378C67980c48927bE87D8dd9033160EDb3652b",
  "abi": [
    {
      "anonymous": false,
      "inputs": [
        {
          "indexed": false,
          "internalType": "address",
          "name": "campaignCreator",
          "type": "address"
        },
        {
          "indexed": false,
          "internalType": "uint256",
          "name": "campaginId",
          "type": "uint256"
        },
        {
          "indexed": false,
          "internalType": "address",
          "name": "campaignAddress",
          "type": "address"
        }
      ],
      "name": "CampaignCreated",
      "type": "event"
    },
    {
      "inputs": [
        {
          "internalType": "uint256",
          "name": "_campaignGoal",
          "type": "uint256"
        },
        {
          "internalType": "uint256",
          "name": "_minContribution",
          "type": "uint256"
        }
      ],
      "name": "createCampaign",
      "outputs": [],
      "stateMutability": "nonpayable",
      "type": "function"
    },
    {
      "inputs": [
        {
          "internalType": "address",
          "name": "owner",
          "type": "address"
        }
      ],
      "name": "getAllCampaignOfOwner",
      "outputs": [
        {
          "internalType": "address[]",
          "name": "",
          "type": "address[]"
        }
      ],
      "stateMutability": "view",
      "type": "function"
    },
    {
      "inputs": [
        {
          "internalType": "address",
          "name": "owner",
          "type": "address"
        },
        {
          "internalType": "uint256",
          "name": "campaignId",
          "type": "uint256"
        }
      ],
      "name": "getCampaign",
      "outputs": [
        {
          "internalType": "address",
          "name": "",
          "type": "address"
        }
      ],
      "stateMutability": "view",
      "type": "function"
    }
  ],
  "transactionHash": "0xe8a644c830a22724f94f45e9fb3c791bc682533cea25dac5d06c3950af9b8341",
  "args": [],
  "numDeployments": 5,
  "solcInputHash": "57d5ae70f3f8faa71e1d10c826e56348",
  "bytecode": "0x608060405234801561001057600080fd5b5061204f806100206000396000f3fe608060405234801561001057600080fd5b50600436106100415760003560e01c806301104849146100465780632250226814610076578063b08328b414610092575b600080fd5b610060600480360381019061005b9190610565565b6100c2565b60405161006d9190610650565b60405180910390f35b610090600480360381019061008b91906106a8565b610248565b005b6100ac60048036038101906100a791906106e8565b610470565b6040516100b99190610737565b60405180910390f35b606060008060008473ffffffffffffffffffffffffffffffffffffffff1673ffffffffffffffffffffffffffffffffffffffff16815260200190815260200160002080549050905060008167ffffffffffffffff81111561012657610125610752565b5b6040519080825280602002602001820160405280156101545781602001602082028036833780820191505090505b50905060005b8281101561023d576000808673ffffffffffffffffffffffffffffffffffffffff1673ffffffffffffffffffffffffffffffffffffffff16815260200190815260200160002081815481106101b2576101b1610781565b5b9060005260206000200160009054906101000a900473ffffffffffffffffffffffffffffffffffffffff168282815181106101f0576101ef610781565b5b602002602001019073ffffffffffffffffffffffffffffffffffffffff16908173ffffffffffffffffffffffffffffffffffffffff16815250508080610235906107df565b91505061015a565b508092505050919050565b60008282604051610258906104f5565b610263929190610836565b604051809103906000f08015801561027f573d6000803e3d6000fd5b5090508073ffffffffffffffffffffffffffffffffffffffff16638863dd1a336040518263ffffffff1660e01b81526004016102bb9190610737565b600060405180830381600087803b1580156102d557600080fd5b505af11580156102e9573d6000803e3d6000fd5b505050506000803373ffffffffffffffffffffffffffffffffffffffff1673ffffffffffffffffffffffffffffffffffffffff168152602001908152602001600020819080600181540180825580915050600190039060005260206000200160009091909190916101000a81548173ffffffffffffffffffffffffffffffffffffffff021916908373ffffffffffffffffffffffffffffffffffffffff1602179055506001339080600181540180825580915050600190039060005260206000200160009091909190916101000a81548173ffffffffffffffffffffffffffffffffffffffff021916908373ffffffffffffffffffffffffffffffffffffffff1602179055507fa01c8e2b0a81830c2e4e199b4cb98ece9d41443b7f9ef51cbb778f0fa13b019d336000803373ffffffffffffffffffffffffffffffffffffffff1673ffffffffffffffffffffffffffffffffffffffff16815260200190815260200160002080549050836040516104639392919061085f565b60405180910390a1505050565b60008060008473ffffffffffffffffffffffffffffffffffffffff1673ffffffffffffffffffffffffffffffffffffffff16815260200190815260200160002082815481106104c2576104c1610781565b5b9060005260206000200160009054906101000a900473ffffffffffffffffffffffffffffffffffffffff16905092915050565b6117838061089783390190565b600080fd5b600073ffffffffffffffffffffffffffffffffffffffff82169050919050565b600061053282610507565b9050919050565b61054281610527565b811461054d57600080fd5b50565b60008135905061055f81610539565b92915050565b60006020828403121561057b5761057a610502565b5b600061058984828501610550565b91505092915050565b600081519050919050565b600082825260208201905092915050565b6000819050602082019050919050565b6105c781610527565b82525050565b60006105d983836105be565b60208301905092915050565b6000602082019050919050565b60006105fd82610592565b610607818561059d565b9350610612836105ae565b8060005b8381101561064357815161062a88826105cd565b9750610635836105e5565b925050600181019050610616565b5085935050505092915050565b6000602082019050818103600083015261066a81846105f2565b905092915050565b6000819050919050565b61068581610672565b811461069057600080fd5b50565b6000813590506106a28161067c565b92915050565b600080604083850312156106bf576106be610502565b5b60006106cd85828601610693565b92505060206106de85828601610693565b9150509250929050565b600080604083850312156106ff576106fe610502565b5b600061070d85828601610550565b925050602061071e85828601610693565b9150509250929050565b61073181610527565b82525050565b600060208201905061074c6000830184610728565b92915050565b7f4e487b7100000000000000000000000000000000000000000000000000000000600052604160045260246000fd5b7f4e487b7100000000000000000000000000000000000000000000000000000000600052603260045260246000fd5b7f4e487b7100000000000000000000000000000000000000000000000000000000600052601160045260246000fd5b60006107ea82610672565b91507fffffffffffffffffffffffffffffffffffffffffffffffffffffffffffffffff820361081c5761081b6107b0565b5b600182019050919050565b61083081610672565b82525050565b600060408201905061084b6000830185610827565b6108586020830184610827565b9392505050565b60006060820190506108746000830186610728565b6108816020830185610827565b61088e6040830184610728565b94935050505056fe60c06040523480156200001157600080fd5b5060405162001783380380620017838339818101604052810190620000379190620000d0565b81608081815250508060a0818152505033600260006101000a81548173ffffffffffffffffffffffffffffffffffffffff021916908373ffffffffffffffffffffffffffffffffffffffff160217905550505062000117565b600080fd5b6000819050919050565b620000aa8162000095565b8114620000b657600080fd5b50565b600081519050620000ca816200009f565b92915050565b60008060408385031215620000ea57620000e962000090565b5b6000620000fa85828601620000b9565b92505060206200010d85828601620000b9565b9150509250929050565b60805160a0516116466200013d6000396000610b920152600061098801526116466000f3fe6080604052600436106100e85760003560e01c80638863dd1a1161008a578063c7abca4711610059578063c7abca47146102c1578063d7bb99ba146102fe578063e4d89cf614610308578063fd6bc8b814610345576100e8565b80638863dd1a146102195780639fd813e314610242578063af157c191461026d578063ba56585914610298576100e8565b8063352dcefe116100c6578063352dcefe1461015f5780634b73212b146101885780637018a7af146101c557806372b47b84146101ee576100e8565b806309d387da146100ed5780630c4f65bd146101185780632e1a7d4d14610143575b600080fd5b3480156100f957600080fd5b50610102610370565b60405161010f9190611179565b60405180910390f35b34801561012457600080fd5b5061012d610378565b60405161013a91906111d5565b60405180910390f35b61015d60048036038101906101589190611221565b6103a2565b005b34801561016b57600080fd5b506101866004803603810190610181919061124e565b6106d4565b005b34801561019457600080fd5b506101af60048036038101906101aa91906112cd565b610886565b6040516101bc9190611179565b60405180910390f35b3480156101d157600080fd5b506101ec60048036038101906101e79190611221565b6108ce565b005b3480156101fa57600080fd5b50610203610984565b6040516102109190611179565b60405180910390f35b34801561022557600080fd5b50610240600480360381019061023b91906112cd565b6109ac565b005b34801561024e57600080fd5b50610257610ab0565b6040516102649190611179565b60405180910390f35b34801561027957600080fd5b50610282610aba565b60405161028f91906113b8565b60405180910390f35b3480156102a457600080fd5b506102bf60048036038101906102ba91906113ff565b610b48565b005b3480156102cd57600080fd5b506102e860048036038101906102e391906112cd565b610b78565b6040516102f59190611179565b60405180910390f35b610306610b90565b005b34801561031457600080fd5b5061032f600480360381019061032a91906112cd565b610d9a565b60405161033c9190611179565b60405180910390f35b34801561035157600080fd5b5061035a610de2565b6040516103679190611179565b60405180910390f35b600047905090565b6000600260009054906101000a900473ffffffffffffffffffffffffffffffffffffffff16905090565b600260009054906101000a900473ffffffffffffffffffffffffffffffffffffffff1673ffffffffffffffffffffffffffffffffffffffff163373ffffffffffffffffffffffffffffffffffffffff1614610429576040517fb75c8fb100000000000000000000000000000000000000000000000000000000815260040160405180910390fd5b80610433816108ce565b600060028111156104475761044661143f565b5b6104716003838154811061045e5761045d61146e565b5b9060005260206000209060090201610def565b60028111156104835761048261143f565b5b036104ba576040517fbae63cc200000000000000000000000000000000000000000000000000000000815260040160405180910390fd5b6002808111156104cd576104cc61143f565b5b6104f7600383815481106104e4576104e361146e565b5b9060005260206000209060090201610def565b60028111156105095761050861143f565b5b03610540576040517f3db289e300000000000000000000000000000000000000000000000000000000815260040160405180910390fd5b600061056c600384815481106105595761055861146e565b5b9060005260206000209060090201610e0a565b9050804710156105a8576040517f57d5fa0800000000000000000000000000000000000000000000000000000000815260040160405180910390fd5b6000600260009054906101000a900473ffffffffffffffffffffffffffffffffffffffff1673ffffffffffffffffffffffffffffffffffffffff16826040516105f0906114ce565b60006040518083038185875af1925050503d806000811461062d576040519150601f19603f3d011682016040523d82523d6000602084013e610632565b606091505b505090508061066d576040517f4c3ac88a00000000000000000000000000000000000000000000000000000000815260040160405180910390fd5b610697600385815481106106845761068361146e565b5b9060005260206000209060090201610e18565b7f78607c3338a50a97f0960b9ebb80a74d63115b7f462a4ea45c55abb0e5a36563826040516106c69190611179565b60405180910390a150505050565b600260009054906101000a900473ffffffffffffffffffffffffffffffffffffffff1673ffffffffffffffffffffffffffffffffffffffff163373ffffffffffffffffffffffffffffffffffffffff161461075b576040517fb75c8fb100000000000000000000000000000000000000000000000000000000815260040160405180910390fd5b600060036001816001815401808255809150500390600052602060002090600902019050818160010181905550838160020181905550828160030181905550428160040181905550600081600601819055506000816007018190555060008160080160016101000a81548160ff021916908315150217905550308160050160006101000a81548173ffffffffffffffffffffffffffffffffffffffff021916908373ffffffffffffffffffffffffffffffffffffffff16021790555060008160080160006101000a81548160ff0219169083600281111561083f5761083e61143f565b5b02179055507fa5f7f4c8f7ba98ee825a5d8b155830a9dd4e7d29fcc431c6c3bcce27776c27846003805490506040516108789190611179565b60405180910390a150505050565b60008060008373ffffffffffffffffffffffffffffffffffffffff1673ffffffffffffffffffffffffffffffffffffffff168152602001908152602001600020549050919050565b6108f8600382815481106108e5576108e461146e565b5b9060005260206000209060090201610e38565b7f53d354f890b3877b85a588db153bbbce1a4b7c3fd4008a48294f78f13a13524a816001600281111561092e5761092d61143f565b5b610958600385815481106109455761094461146e565b5b9060005260206000209060090201610def565b600281111561096a5761096961143f565b5b146040516109799291906114fe565b60405180910390a150565b60007f0000000000000000000000000000000000000000000000000000000000000000905090565b600260009054906101000a900473ffffffffffffffffffffffffffffffffffffffff1673ffffffffffffffffffffffffffffffffffffffff163373ffffffffffffffffffffffffffffffffffffffff1614610a33576040517fb75c8fb100000000000000000000000000000000000000000000000000000000815260040160405180910390fd5b80600260006101000a81548173ffffffffffffffffffffffffffffffffffffffff021916908373ffffffffffffffffffffffffffffffffffffffff1602179055507f0d18b5fd22306e373229b9439188228edca81207d1667f604daf6cef8aa3ee673382604051610aa5929190611527565b60405180910390a150565b6000600154905090565b60606004805480602002602001604051908101604052809291908181526020018280548015610b3e57602002820191906000526020600020905b8160009054906101000a900473ffffffffffffffffffffffffffffffffffffffff1673ffffffffffffffffffffffffffffffffffffffff1681526020019060010190808311610af4575b5050505050905090565b610b7460038381548110610b5f57610b5e61146e565b5b90600052602060002090600902018233610f3f565b5050565b60006020528060005260406000206000915090505481565b7f0000000000000000000000000000000000000000000000000000000000000000341015610bea576040517f0cb8feec00000000000000000000000000000000000000000000000000000000815260040160405180910390fd5b60003073ffffffffffffffffffffffffffffffffffffffff1634604051610c10906114ce565b60006040518083038185875af1925050503d8060008114610c4d576040519150601f19603f3d011682016040523d82523d6000602084013e610c52565b606091505b5050905080610c8d576040517f27b8c0b700000000000000000000000000000000000000000000000000000000815260040160405180910390fd5b7f4a0f31347e3bcd7ca4807151e54057b91971fdf592fcd3056a22fa1236dea3a23334604051610cbe929190611550565b60405180910390a1346000803373ffffffffffffffffffffffffffffffffffffffff1673ffffffffffffffffffffffffffffffffffffffff1681526020019081526020016000206000828254610d1491906115a8565b925050819055503460016000828254610d2d91906115a8565b925050819055506004339080600181540180825580915050600190039060005260206000200160009091909190916101000a81548173ffffffffffffffffffffffffffffffffffffffff021916908373ffffffffffffffffffffffffffffffffffffffff16021790555050565b60008060008373ffffffffffffffffffffffffffffffffffffffff1673ffffffffffffffffffffffffffffffffffffffff168152602001908152602001600020549050919050565b6000600480549050905090565b60008160080160009054906101000a900460ff169050919050565b600081600301549050919050565b60018160080160016101000a81548160ff02191690831515021790555050565b8060016000610e4683611121565b90508115610e8e576000811115610e89576040517f1638298000000000000000000000000000000000000000000000000000000000815260040160405180910390fd5b610ec9565b60008103610ec8576040517fc1ae823a00000000000000000000000000000000000000000000000000000000815260040160405180910390fd5b5b836007015484600601541115610f0b5760018460080160006101000a81548160ff02191690836002811115610f0157610f0061143f565b5b0217905550610f39565b60028460080160006101000a81548160ff02191690836002811115610f3357610f3261143f565b5b02179055505b50505050565b82600080610f4c83611121565b90508115610f94576000811115610f8f576040517f1638298000000000000000000000000000000000000000000000000000000000815260040160405180910390fd5b610fcf565b60008103610fce576040517fc1ae823a00000000000000000000000000000000000000000000000000000000815260040160405180910390fd5b5b8560000160008573ffffffffffffffffffffffffffffffffffffffff1673ffffffffffffffffffffffffffffffffffffffff16815260200190815260200160002060009054906101000a900460ff1615611055576040517fd2383bdc00000000000000000000000000000000000000000000000000000000815260040160405180910390fd5b60018660000160008673ffffffffffffffffffffffffffffffffffffffff1673ffffffffffffffffffffffffffffffffffffffff16815260200190815260200160002060006101000a81548160ff021916908315150217905550600060018111156110c3576110c261143f565b5b8560018111156110d6576110d561143f565b5b036110fc5760018660060160008282546110f091906115a8565b92505081905550611119565b600186600701600082825461111191906115a8565b925050819055505b505050505050565b6000808260020154836004015461113891906115a8565b905080421061114b57600091505061115b565b428161115791906115dc565b9150505b919050565b6000819050919050565b61117381611160565b82525050565b600060208201905061118e600083018461116a565b92915050565b600073ffffffffffffffffffffffffffffffffffffffff82169050919050565b60006111bf82611194565b9050919050565b6111cf816111b4565b82525050565b60006020820190506111ea60008301846111c6565b92915050565b600080fd5b6111fe81611160565b811461120957600080fd5b50565b60008135905061121b816111f5565b92915050565b600060208284031215611237576112366111f0565b5b60006112458482850161120c565b91505092915050565b600080600060608486031215611267576112666111f0565b5b60006112758682870161120c565b93505060206112868682870161120c565b92505060406112978682870161120c565b9150509250925092565b6112aa816111b4565b81146112b557600080fd5b50565b6000813590506112c7816112a1565b92915050565b6000602082840312156112e3576112e26111f0565b5b60006112f1848285016112b8565b91505092915050565b600081519050919050565b600082825260208201905092915050565b6000819050602082019050919050565b61132f816111b4565b82525050565b60006113418383611326565b60208301905092915050565b6000602082019050919050565b6000611365826112fa565b61136f8185611305565b935061137a83611316565b8060005b838110156113ab5781516113928882611335565b975061139d8361134d565b92505060018101905061137e565b5085935050505092915050565b600060208201905081810360008301526113d2818461135a565b905092915050565b600281106113e757600080fd5b50565b6000813590506113f9816113da565b92915050565b60008060408385031215611416576114156111f0565b5b60006114248582860161120c565b9250506020611435858286016113ea565b9150509250929050565b7f4e487b7100000000000000000000000000000000000000000000000000000000600052602160045260246000fd5b7f4e487b7100000000000000000000000000000000000000000000000000000000600052603260045260246000fd5b600081905092915050565b50565b60006114b860008361149d565b91506114c3826114a8565b600082019050919050565b60006114d9826114ab565b9150819050919050565b60008115159050919050565b6114f8816114e3565b82525050565b6000604082019050611513600083018561116a565b61152060208301846114ef565b9392505050565b600060408201905061153c60008301856111c6565b61154960208301846111c6565b9392505050565b600060408201905061156560008301856111c6565b611572602083018461116a565b9392505050565b7f4e487b7100000000000000000000000000000000000000000000000000000000600052601160045260246000fd5b60006115b382611160565b91506115be83611160565b92508282019050808211156115d6576115d5611579565b5b92915050565b60006115e782611160565b91506115f283611160565b925082820390508181111561160a57611609611579565b5b9291505056fea26469706673582212207f5b03b9f15c214d3c8a41fa11ebbf0478a8a27ca72f111874febc99453cbc1164736f6c63430008110033a264697066735822122011b5d317a5e593dd9f8ed04ea3ab4984fc38d25c9bb7d270b4c89647f15838e864736f6c63430008110033",
  "devdoc": {
    "kind": "dev",
    "methods": {},
    "version": 1
  },
  "userdoc": {
    "kind": "user",
    "methods": {},
    "version": 1
  },
  "storageLayout": {
    "storage": [
      {
        "astId": 515,
        "contract": "contracts/CrowdFunding.sol:CrowdFunding",
        "label": "s_campaigns",
        "offset": 0,
        "slot": "0",
        "type": "t_mapping(t_address,t_array(t_contract(Campaign)496)dyn_storage)"
      },
      {
        "astId": 518,
        "contract": "contracts/CrowdFunding.sol:CrowdFunding",
        "label": "s_campaignCreaters",
        "offset": 0,
        "slot": "1",
        "type": "t_array(t_address)dyn_storage"
      }
    ],
    "types": {
      "t_address": {
        "encoding": "inplace",
        "label": "address",
        "numberOfBytes": "20"
      },
      "t_array(t_address)dyn_storage": {
        "base": "t_address",
        "encoding": "dynamic_array",
        "label": "address[]",
        "numberOfBytes": "32"
      },
      "t_array(t_contract(Campaign)496)dyn_storage": {
        "base": "t_contract(Campaign)496",
        "encoding": "dynamic_array",
        "label": "contract Campaign[]",
        "numberOfBytes": "32"
      },
      "t_contract(Campaign)496": {
        "encoding": "inplace",
        "label": "contract Campaign",
        "numberOfBytes": "20"
      },
      "t_mapping(t_address,t_array(t_contract(Campaign)496)dyn_storage)": {
        "encoding": "mapping",
        "key": "t_address",
        "label": "mapping(address => contract Campaign[])",
        "numberOfBytes": "32",
        "value": "t_array(t_contract(Campaign)496)dyn_storage"
      }
    }
  }
}